:020000040800F2
:10000000A8890020719F0008199200081B9200081F
:1000100000000000000000000000000000000000E0
:100020000000000000000000000000000D5100086A
:100030000000000000000000CF5000089F4C0008A6
:100040000312000800000000B71200080B1300089C
:10005000831800088718000871920008BB920008F6
:10006000000000008B180008B32700085F2B000871
:100070004B3100084B3900083F49000800000000E0
:10008000FB4B00081F9200081B6200083362000847
:10009000037700080B7B00089F8200087385000827
:1000A000578700088B9300080B9C000829920008D2
:1000B00069920008179C0008FDB5B2B03A98049107
:1000C00002A93B22885400200D9026A8401C3190A4
:1000D0000DE00498329A90470490002801D100F076
:1000E00027FF0D98401C0D903398401C3390339897
:1000F0000178002910D02529EBD100200790089025
:1001000009900A900B900C9000210224012013907A
:1001100008201290339D05E00D9800F00BFF0800B9
:10012000139901436D1C28782028F8D023280BD080
:100130002B2804D02D2804D0302808D00AE02143F1
:10014000F0E708000421ECE708000821E9E70800CF
:100150001021E6E72A280FD1349802681068121D92
:10016000349B1A600F90002804D542420F92080079
:10017000042101436D1C12E000200F90654A09E044
:100180000F9B934205DA9E00F3185B001818303875
:100190000F906D1C28780300303B0A2BF0D3287891
:1001A0002E2803D00020C0430E9027E06D1C287835
:1001B0002A2808D1349800680268001D349B186012
:1001C0000E926D1C1AE02D2802D12D226D1C00E02C
:1001D000002200200E900CE0002A09D10E9B4D4E0B
:1001E000B34205DA9E00F3185B00181830380E9001
:1001F0006D1C28780300303B0A2BEDD302A8018741
:100200002E78310041487844FF30C01C00F076FF62
:10021000002801D06D1C00E0002602A83A214654B7
:10022000405C682804D1287868280BD1622005E05A
:100230006C2807D128786C2804D1712002A93A22B1
:1002400088546D1C17A80690287869460870681CA9
:100250003390684602781000253833D01C3800D11E
:100260000EE2001F022800D80AE2133801D100F084
:1002700083FD093800D103E2801E01D100F019FE90
:10028000401E01D100F0C6FD401E022800D8F7E153
:10029000001F01D100F0BEFD401F00D149E1401E0A
:1002A00001D100F069FD401E00D1EBE0C01E10D06E
:1002B000801E01D100F060FDC01E01D100F05CFD88
:1002C00000F002FE252017A908701398079000F08F
:1002D00006FE349800680468001D3499086005948F
:1002E000002C00D0BAE002A83B21405C002800D1DD
:1002F000ADE00024E44306487844143000F046FFA3
:10030000201A01D000F014FE00F0E9FD1490000066
:1003100048900000CBCCCC0C641E01D000F0FEFD58
:100320003295079D17AC002D0FD0329E227802A97E
:10033000300000F0B7FE002802D4641C6D1EF5D119
:100340003296002801D000F0F3FD30206946087095
:100350000A9C002C0DDD329D01236A4602A928006B
:1003600000F0B1FE002801D000F0E2FD641EF3D1E0
:100370003295059C089D002D0FD0329E227802A94F
:10038000300000F08FFE002802D4641C6D1EF5D1F1
:100390003296002801D000F0CBFD302769460F705F
:1003A0000B9C002C0DDD329D01236A4602A928001A
:1003B00000F089FE002801D000F0BAFD641EF3D1E0
:1003C0003295059808994418099D002D0FD0329E4A
:1003D000227802A9300000F065FE002802D4641CD7
:1003E0006D1EF5D13296002801D000F0A1FD6846BF
:1003F00007700C9C002C0DDD329D01236A4602A97A
:10040000280000F060FE002801D000F091FD641E7D
:10041000F3D1329502A83821405C400700D466E64B
:100420002020694608700198002800DC5FE6019CE6
:10043000329D01236A4602A9280000F044FE0028EC
:1004400001D000F075FD641EF3D132954FE63F48B0
:100450007844FF30C01F059000F041FD0E9D002D37
:1004600003D5200000F0B6FE09E02A00002120009C
:1004700000F0BCFE002801D0001B00E0280008901E
:1004800000F02DFD349800680268001D3499086062
:100490000020C0430021104002AA03C217A8059003
:1004A000069A3C2302A803C8002904D1002802D1DF
:1004B0000E9C002C13D05B1E05072D0F3035EEB2BD
:1004C0003A2E00DB2735D55400090C0720430909D3
:1004D00001D1002803D0059CD518AC42EBD33C20B9
:1004E000C01A0890D11805910E99884208DA081AA6
:1004F0000A9002A8018FB54A0A40028700F0EFFC7B
:10050000002901D400F0EBFC02A93822895C1422F6
:100510000A40102A01D000F0E2FC0F99079A891ACC
:100520000A9A891A081A002801DC00F0D8FC00F0A9
:1005300021FC02A83B21415C002909D00024E443AE
:100540004B487844FF302B30D8E600BF288E00009F
:100550003A21405C62286AD0682819D06A2845D0C0
:100560006C2806D071284FD0742831D07A2821D039
:100570006FE0349800680168001D349A106000290B
:100580007AD10024E4433B487844FF301738B5E67D
:10059000349800680168001D349A1060002905D164
:1005A0000024E44333487844CA30A7E60D98088015
:1005B00000F095FC349800680168001D349A1060C2
:1005C000002959D10024E4432A487844A63095E60E
:1005D000349800680168001D349A106000294BD1DE
:1005E0000024E443234878448A3087E6349800683E
:1005F0000268001D34990860002A13D10024E443E6
:100600001C4878446E3079E6349800680268001D12
:1006100034990860002A05D10024E4431548784441
:1006200052306BE60D98C11703C200F058FC3498A5
:1006300000680168001D349A1060002905D100246B
:10064000E4430C4878442C3058E60D98087000F0CC
:1006500046FC349800680168001D349A1060002937
:100660000AD10024E44303487844083046E600BF3A
:10067000B88C0000CC8C00000D98086000F02FFCB6
:1006800034980368DB1D072083433498036003CB51
:10069000349D2B6002AB03C32023C80F04D00798FE
:1006A0002D2117AB19540DE002A8008F204204D071
:1006B00007982B2117AB195404E0C00704D50798FD
:1006C00017A90B54401C079017A8079943180593C6
:1006D00026AC02A803C814AD03C5684600782021E3
:1006E000014368468170612909D00E98002801D520
:1006F000062003E003D1672901D113980E9002A8C8
:1007000003C808004D006D156D1C10D109030ED0F3
:1007100003200890613A1A2A04D24E497944FF31E5
:10072000353111E04C497944FF312F310CE0002D77
:100730000FD100030DD103200890613A1A2A15D376
:1007400046497944FF3117310322180000F074FD47
:10075000C5E302A80CC8B9A003C819400026802729
:100760007F03B94207D2002059400DE03C4979444B
:10077000FF311139E8E7080DAE4E361810001900A8
:10078000B04B0B40AC49194302AA03C268468078BB
:1007900061280FD1059830210170811C05916946AF
:1007A0000978612901D1782100E05821417007982A
:1007B000801C079002A803C8A0A20CCA02400B40EC
:1007C00006D1002A04D1002600257EE1EFFF0000BB
:1007D00068468078612800D0B8E00E98002801D5DE
:1007E000212000E0401C1690169F7F1C14A803C80F
:1007F0000022002300F02DFD02A830C802D2802084
:1008000000064540361F019626A90A7026A8461CF8
:10081000002F53DD20002900002280235B0300F01D
:1008200031FD4BD828004A00530D1A001C32002B12
:1008300018D0002A16DDAE4B9A4205DB1B0580223C
:1008400012061040184310E07E480840110501438D
:100850000D000CE0248B0000248B0000288B00008E
:10086000208B00008022120610400024050020008A
:10087000290000F021FD1490FF1F002F09DD00F07A
:1008800055FD02000B002000290000F0B6FD040019
:100890000D00F01D0721149A002A0ADD491E08D414
:1008A000401E13071B0F03701211F5E7401E0022B4
:1008B0000270491EFAD5C61D002FABDC26A831995F
:1008C000711A26AA541C169A0E00914200DD1600D9
:1008D000002E34D48E4205DA411C895D082901DBE3
:1008E0000F2100E00021320026AB9B1801E0761EAC
:1008F0005B1E521E1D788D42F9D00F2904D1411C78
:10090000895C491C401C8154002A04D526AC761C05
:100910000198001D0190711E11D46218684600787C
:1009200013783033DDB23A2D02DB05003A3D5B1916
:100930001370491E521E0029F2D5694608700E98A0
:10094000002800D4C0E0701E0E90BDE014A830C88E
:100950006D006D08684930004843684900F0DAFDD1
:10096000019007200199401A05DD020020002900AE
:1009700000F072FB0AE042420020614900F06CFB8B
:1009800002000B002000290000F01EFE6A4692784B
:10099000662A02D1019A0A3200E006220E9B9A18BA
:1009A000142A00DD142226AB30241C705C1C02E0EB
:1009B00014A803C8169A002A46DD14AB03C3169286
:1009C00014A803C800F08AFC3090064608340425B9
:1009D00030000A2100F0A1FD0F0030000A2100F0D4
:1009E0009CFD06003037601E077030000A2100F0C1
:1009F00094FD0F0030000A2100F08FFD0600A41EB8
:100A0000303727706D1EE3D10834169808381690D9
:100A10000028CDDD309800F079FC02000B0014A80E
:100A200003C800F0EAFC0022364B00F02EFE14AAA8
:100A300003C2C5E702FCFFFF0000E03FFFFFFFFF2E
:100A4000FFFFFF7FFFFF0F803198201A26A94C1C63
:100A5000019902E0401E491E641C2278302AF9D018
:100A6000019169468978662902D10199491C06E0FD
:100A700069468978652901D1139900E000210E9A11
:100A80005618B04200DA461E002E1DD4864204DA03
:100A9000A05D342801DD392100E030213200601EE4
:100AA000831801E0761E5B1E521E1D788D42F9D020
:100AB000392902D1A15C491CA154002A04D50400A3
:100AC000761C0198401C0190019D6846007869469B
:100AD00048700E9F30B2002803DC139E054C7C4406
:100AE00012346846807866280ED16D1C26E000BF5F
:100AF000FF0700009488000097750000A0860100A1
:100B00000000F03F84D7974168468078672846D137
:100B100028B20321C943884247DBB84245DA6D1C3D
:100B200002A8008F1299C0B2084203D130B2B84275
:100B300000DA070028B23F1A00D5002728B20028A3
:100B400000DDB5E00898411C08913021059A115448
:100B5000002F05DC02A8008F1299C0B2084205D010
:100B60000898411C08912E21059A115428B241423F
:100B70008F4200DA7D422DB268420B907D1930B26F
:100B8000854200DA2E0036B209963200210005981F
:100B9000089BC01800F050FBA81B0C90D4E06846DE
:100BA0004078612818D170201BE030B2B84206DAD4
:100BB00002A9098F129AC9B2114200D107007F1E03
:100BC00000D5002768464078672802D1652069462D
:100BD00007E04520694604E068464078412801D195
:100BE000502048700898411C08912178059A1154AA
:100BF000611C002F05DC02A8008F129AC0B21042BF
:100C000018D00898421C08922E22059B1A54002FD7
:100C100010DD741E20B2874200DA3C0022B2059833
:100C2000089BC01800F008FB24B20898001908902F
:100C3000381B0B900598089940186946497801704F
:100C400029B2002903D42B214170861C03E02D22F8
:100C50004270861C4D42002412A928000D0005E0B8
:100C60000A2100F057FC2970641C6D1C00B200289A
:100C7000F6DC012C08DC6846407820210143652918
:100C800002D130203070761C002C09D13020307019
:100C9000761C07E0641E12A8005D30303070761CB0
:100CA000002CF7DC059808994018301A09904BE0A1
:100CB00030B229B288421DDA32B221000598089B71
:100CC000C01800F0B9FA36B20898801908902DB211
:100CD000A91B0B91002F05DC02A9098F129AC9B23A
:100CE000114205D02E21059A11540998401C0990F3
:100CF0000C9729E02AB221000598089BC01800F043
:100D00009BFA28B2089909180891751B002F05DC79
:100D100002AA128F129BD2B21A4204D04A1C089225
:100D20002E22059B5A5429B28F4200DA3D002AB286
:100D300021180598089BC01800F07EFA2DB208987B
:100D400040190890781B0B9002A83821405C1421B0
:100D50000140102900D0C2E00798089940180B996B
:100D60004018099940180C9940180F99884200DBE7
:100D7000B5E0081A0A90B2E002AA3A20105C622894
:100D800008D068280ED06A2814D06C281DD071288D
:100D900010D01AE0349801680868091D349B196066
:100DA000C0B218E0349801680868091D349B1960C6
:100DB00080B210E034980368DB1D07208343349829
:100DC000036003CB349C236006E034980168086814
:100DD000091D349B1960002102AB03C3108F1299C7
:100DE000C0B208425BD002A803C8002901D1002884
:100DF00055D0684600782021014378294FD10798C3
:100E000017A930220A54401C421C07926A461278E5
:100E10000A5444E002AA3A20105C622808D06828EC
:100E20000ED06A2814D06C281DD0712810D01AE07A
:100E3000349801680868091D349B196040B218E0B5
:100E4000349801680868091D349B196000B210E0ED
:100E500034980368DB1D072083433498036003CB79
:100E6000349D2B6006E0349801680868091D349BA6
:100E70001960C11702AB03C3002902DA07982D21BC
:100E800009E0108F204202D007982B2103E0C00711
:100E900005D50798202117AA1154401C079017A8C0
:100EA0000799401805906846017802A800F044F8B8
:100EB00015E013980790349800680168001D349A73
:100EC000106017A801700AE0252017A90870139870
:100ED000079068460078002801D04A7007940F9860
:100EE0000799401A0A99401A0899401A0B99401A12
:100EF0000999401A0C99401A019002A83821405CC7
:100F0000400701D5FFF70DFA2020694608700198C7
:100F1000002801DCFFF705FA019C329D01236A4697
:100F200002A9280000F0CFF8002801D1FFF7F4F95A
:100F30000020C04335B0F0BDF2B586B0040025698D
:100F40006F2901D1082707E00846202101437829AD
:100F500001D00A2700E010273C2603CC083C04AA55
:100F600003C26A46127E642A03D06A46127E692A48
:100F700009D1002907DA04A803C800220023121AA5
:100F80008B4104A80CC004A803C800290DD1002877
:100F90000BD1206B002808D1082F3BD13820205CD2
:100FA000000737D53B26302033E00294009504A893
:100FB00030C8761E0196200029003A00FB1700F089
:100FC00026FC3032D0B23A2803DB6846007E513826
:100FD000121800988255200029003A00FB1700F0F3
:100FE00016FC04000D0001D1002C05D00298C06849
:100FF000009989198842DCD3029C009D082F09D1F1
:101000003820205C000705D5A85D302802D0761E68
:101010003020A8553C20801BA061A919E160216BFC
:10102000884206DA081A2062208F1C490140218775
:1010300010E000290ED53821615C14220A40102AE4
:1010400008D1616B6269891A226A891A081A002814
:1010500000DD206207B0F0BDF8B50026104F040097
:101060000D00009214E0C00707D532003B002000BD
:10107000290000F00AFB04000D00009840100090C9
:101080003000390032003B0000F0FFFA06000F008C
:1010900000980028E7D120002900F4BDEFFF0000F0
:1010A0000000244010B503000C001100A068984710
:1010B000A060002804D0E06A401CE062002010BD5F
:1010C0000020C04310BDF8B50024002B11D007004C
:1010D0000E0014001D002178B068B847B0600028E9
:1010E00009D0F06A401CF0620020641C6D1EF2D131
:1010F00004002000F2BD0020C043F9E7C9B2027825
:101100008A4203D0401C002AF9D100207047F1B474
:101110000168421841684808131800988068C90798
:101120001ED5494640181BE01778521C0770401C1A
:10113000761EF9D1002C13D01678521C89080D4068
:10114000032D01D11578521C290271184D42411905
:10115000A41C05D00D78491C0570401C641EF9D1F3
:101160009A420FD01178521C032503260E4002D15B
:101170001678F61C521C0C090F2CD9D114780F3498
:10118000521CD5E700980C30F2BC704780B500289F
:1011900001D100BF07A006490B68002B03D0222213
:1011A0000021984701E000F067FB222002BD00000B
:1011B000A0850020636F6E73747261696E7420681D
:1011C000616E646C65723A20626164206D65737350
:1011D00061676500431C0178401C0942FBD1C01ABD
:1011E00070470268531C036011707047C9B2521EE9
:1011F00005D30378401C8B42F9D1401E7047002074
:101200007047FEE770B4103A03D378C9103A78C03B
:10121000FBD2530701D318C918C001D508C908C0AB
:10122000D20704D30B880380891C801C002A01D5B7
:101230000B78037070BC70478B0701D18307E1D036
:10124000124205D00B78491C0370401C521EF9D184
:10125000704730B4012464054D00EC420BD85D00AA
:10126000EC4208D80C001C4364000443144304D22D
:10127000994200D1904230BC7047FCD08B42FAD1E9
:101280008242F8E730B4012464054D00EC420BD8EB
:101290005D00EC4208D80C001C4364000443144376
:1012A00004D28B4200D1824230BC7047FCD09942BC
:1012B000FAD19042F8E7FEE7F4464A1805D200F06A
:1012C0000FF801D580174008604700F009F80121A8
:1012D000C907884200D90800404260474A1812D224
:1012E000400DC90208430121C9070843520D40219E
:1012F0000901521A521C06D452421F3201D4D04066
:101300007047C017704700207047FEE70100422277
:101310001201D21E004207D002D4521E0018FCD582
:10132000C10A400512058918704700000100EED57A
:101330004042F446FFF7EBFF0122D207114360471A
:101340008B4200D1824205D98446100062468C4609
:1013500019006346DF184C18640D7F0D3AD0661CE7
:10136000760537D0E61B352E34DCDB022B43DB0A57
:101370000C0DC9022943C912202E0DDB1700203E97
:1013800006D01F00F741F3405F400026012A774155
:10139000C01871410DD217E01700F741F2405740D5
:1013A000F3415A40B340F3405A4000268018594157
:1013B0000AD3A21C52050FD0C207012F7241170099
:1013C0004008CB0718434908641C24054208AF4174
:1013D00070416141F0BC7047641C21050020F9E7B1
:1013E0006B4010E06B40ABE7F742F3D1E943F1E724
:1013F0002442EFD100200021ECE7F0B40125ED07F5
:101400000F005F40EED40C00871A9C4105D2C01B30
:10141000A141D219634169406B40AE0ADF184C18F4
:10142000F442E1D2640D7F0DE2D0E61B362ED1DC12
:10143000DB022B43DB0AA4460C0DC9022943C90A6F
:10144000012E28DC04D1D6075208DF073A435B0897
:10145000EF0A76429041994114D039423BD1B619F6
:1014600040414941761C394204D1761C001849415B
:101470003942FAD0B9436746B74208D9A41B2405BC
:101480002143A7E70042EAD13642E8D1A2E7E40AC5
:10149000E10700209EE7202E0BDD203E1F00F340D9
:1014A000F7415F40012A002257417E429841914115
:1014B0000BE01700F741F2405740F3415A40B34068
:1014C000F3405A407E42904199410A0303D2641E80
:1014D000B619404149410027641E24054208AE4127
:1014E00078416141F0BC7047F446002804D4494279
:1014F00000F013F8404260474042002905D45FD015
:1015000000F00BF8404249426047494200F005F8BC
:101510004942604703460B43E6D40022030A8B424C
:101520000BD203098B4219D243088B422ED2411AA7
:1015300000D20146524110467047FF2209023FD0B7
:1015400012068B4205D3121209028B4201D31212EA
:10155000090203098B4219D300E0090AC3098B422F
:1015600001D3CB01C01A524183098B4201D38B01B5
:10157000C01A524143098B4201D34B01C01A524158
:1015800003098B4201D30B01C01A5241C3088B429D
:1015900001D3CB00C01A524183088B4201D38B0088
:1015A000C01A524143088B4201D34B00C01A52412A
:1015B000884200D3401A5241CFD2014610467047AC
:1015C00008B500F05FF908BDF0B40E005E400125DB
:1015D000ED072E40B446AE0ADF184C18F4423BD259
:1015E000F74241D2640D43D07F0D38D0E41BC902CD
:1015F000DB0229432B43CF0ADB0A0600B61A9F41C0
:1016000004D2641EB6197F41B6185F416812800D7E
:1016100024180018844222DAE80C0021B6197F4110
:10162000B61A9F4102D2B6185F413F1C4041494162
:10163000F4D3241C21DD2405B6197F41B61A9F413D
:1016400005D33743C60737430026012F7041614158
:1016500066463143F0BC7047FCD1F74205D200200A
:10166000C14349054908F3E704D00020C143F1E72D
:101670007F0DFAD000206146ECE72442FAD1401CED
:1016800061410F03F6D30020E2E7F0B50E005E40A3
:101690000125ED072E40B446AE0ADF184C18F4427F
:1016A00008D2F7420ED2640D01D07F0D12D1002076
:1016B0006146F0BD05D1F74201D87F0D05D100206C
:1016C000C143F0BDFBD1640DF9D00020C1434905F1
:1016D00049088FE0E419C902DB0229432B43DB0AE6
:1016E000460DC00231438E4630B487B295B27D4379
:1016F0002E0CADB2140C7C43A419260C24042543F3
:101700009CB27C43A419190C7943270CC919A4B2C3
:101710000F043C43090C000C97B247432E0CBE1932
:101720003543ADB2170C4743360CBF19A6B2BF19EB
:101730003E043543240C3E0C36199FB24743BF1973
:10174000BCB23E0C89191F0C47437F183E0434433A
:10175000390C704680B297B247432E0CBE19354300
:10176000ADB2170C4743360CBF19A6B2BF193E04E1
:101770003543240C3E0C36199FB24743BF19BCB207
:101780003E0C89191F0C47437F183E043443390C23
:1017900077463F0C90B278432E0C80190604ADB208
:1017A0002E43050CA0B22D18120C7A435019020CCE
:1017B00080B2240CA4189AB27A431219140420435C
:1017C000120C89181B0C7B43C91830BCEF0A394234
:1017D00003D1B61940414941641E6F12BF0DE41B8D
:1017E0000BDBFF19BC4211DA240500274208AE4189
:1017F0007841614166463143F0BD641C05D1401C0F
:101800006141CF0201D34908F4E750E75DE7124296
:1018100024D0994228D970B500251B4202D00C0073
:10182000002109E00024012649186441944200D3B4
:10183000A41A7641F8D33100012601E0764109D29D
:10184000001864416D41A41A9D41F7D2A4185D416E
:10185000B619F5D3300022002B0070BD1B42D8D141
:1018600008B500F011F808BD01D19042D3D20200B2
:101870000B0000210020704780B5012000F006F821
:1018800001BDFEE77047FEE77047FEE780B500BF89
:1018900000BF024A11001820ABBEFBE72600020081
:1018A00080B5002000F0A6FD01BD80B500F05FF816
:1018B00000F084F8B4480078002817D002281DD022
:1018C00018D3042822D01DD3062827D022D30828D5
:1018D0002CD027D30A2831D02CD30C2836D031D3A2
:1018E0000E283BD036D30F283CD03FE0002000F03C
:1018F0006FF83BE0012000F06BF837E0002000F0CB
:101900009AF833E0012000F096F82FE0002000F074
:10191000B2F82BE0012000F0AEF827E0002000F044
:10192000F6F823E0012000F0F2F81FE0002000F0BC
:1019300031F91BE0012000F02DF917E0002000F044
:10194000A1F913E0012000F09DF90FE0002000F064
:1019500091FA0BE0012000F08DFA07E0002000F082
:1019600017FC03E0012000F013FCFFE701BD70B598
:10197000854C864801686160A16802680A43A260DC
:101980000025056017E0012061680200AA400A40B6
:10199000A84082420ED17E4E08206843301840682D
:1019A000002807D000F09BFD082068433158AC4860
:1019B00000F08BFF6D1C0A2DE5D370BD80B51B2098
:1019C00001F00CF8002802D0062000F013FD01BD44
:1019D00080B50100C9B2002921D1032000F017FD14
:1019E00000F07DFD9F4800F070FF00F078FD9E48FC
:1019F00000F06BFF00F073FD9C48006800F065FF8D
:101A000000F06DFD9A4800F060FF022000F0FFFC3E
:101A1000022000F00DFD01205B4908700AE0C0B211
:101A2000012807D15848017906220A40002A01D02E
:101A30000221017001BD10B50100C9B200290ED10B
:101A40008A48006800F041FF01F0C9F900F047FD45
:101A5000884800F03AFF03204B4908700AE0C0B202
:101A6000012807D1484CA068800503D500F07EFD11
:101A70000620207010BD80B500210100C9B20029E8
:101A800018D100F02CFD7948006800F01EFF00F02E
:101A900026FD794800F019FF00F021FD774800F09D
:101AA00014FF00F01CFD764800F00FFF05203649BA
:101AB00008702BE0C0B2012828D1002000F0C9FE38
:101AC00000280CD0017A302909D1417A0D2902D0A1
:101AD000417A0A2903D106202B49087016E0002814
:101AE0000CD0017A312909D1417A0D2902D0417AED
:101AF0000A2903D106202449087007E0002805D0F0
:101B000000F0EDFCB848006800F0DFFE01BD80B5D4
:101B100000210100C9B2002918D100F0E0FC5348AF
:101B2000006800F0D2FE00F0DAFCB04800F0CDFE14
:101B300000F0D5FCAE4800F0C8FE00F0D0FCAD4887
:101B400000F0C3FE0720104908701CE0C0B2012855
:101B500019D1002000F07DFE00280CD0017A302938
:101B600009D1417A0D2902D0417A0A2903D10820EE
:101B70000549087007E0002805D000F0B0FC9A483D
:101B8000006800F0A2FE01BD7084002038830020B0
:101B90008C94000810B500210100C9B2002923D19E
:101BA00000F09DFC3148006800F08FFE00F097FCCB
:101BB000AC4800F08AFE00F092FCAB4800F085FED5
:101BC00000F08DFCA94800F080FE00F088FCA848D9
:101BD00000F07BFE5D4CA06840218843A06000F0CF
:101BE000FBFF092020703AE0C0B2012837D1002065
:101BF00000F02FFE00280CD0017A302909D1417A5B
:101C00000D2902D0417A0A2903D10A204F490870D0
:101C100025E000280CD0017A312909D1417A0D291B
:101C200002D0417A0A2903D10C204849087016E0F5
:101C300000280CD0017A322909D1417A0D2902D02D
:101C4000417A0A2903D10E204049087007E0002894
:101C500005D000F044FC6448006800F036FE10BD7A
:101C6000E09E00089C9F0008189E00081C030020AE
:101C70007099000898990008F09A0008FC970008ED
:101C80003098000810B500210100C9B2002922D106
:101C900000F025FCA84C206800F017FE00F01FFCA7
:101CA000A64800F012FE00F01AFCA54800F00DFE58
:101CB00000F015FCA34800F008FE00F010FC2068BE
:101CC00000F003FE00F00BFC9F4800F0FEFD0B202F
:101CD0001E49087038E0C0B2012835D11B4C60782D
:101CE000002803D002282CD028D32DE0002000F0BB
:101CF000B0FD00280BD0017A302908D1417A0D2996
:101D000002D0417A0A2902D10120607015E0002832
:101D10000BD0017A312908D1417A0D2902D0417ABC
:101D20000A2902D10220607007E0002805D000F0E7
:101D3000D6FB2D48006800F0C8FD05E000F008F86B
:101D400002E000F059F8FFE710BD000070840020A9
:101D500038B500252800B74CA078002803D0022809
:101D600036D00FD33FE000F0BAFB7348006800F0B4
:101D7000ACFD00F0B4FB6321C94800F0A6FD0120D2
:101D8000A07030E0002000F064FD0500002D1ED0A2
:101D900069682800083000F034FF00F0A0FBC1485B
:101DA00000F093FD69682800083000F0DEFD00F0C7
:101DB00096FB614D286800F088FD00F090FB2868D4
:101DC00000F083FD052000F033FB0220A0700AE044
:101DD0002079800606D500F082FBB348006800F049
:101DE00074FDA570FFE731BD18030020149B0008A7
:101DF000BC950008C498000810B58E4CA078002847
:101E000002D001280CD02BE000F069FB4A480068A2
:101E100000F05BFD062000F00BFB0120A0701FE02E
:101E2000207A40061BD5A06840218843A06000F0BE
:101E300056FB9E4800F049FDB2484168806800F0BA
:101E400094FD00F04CFB3C48006800F03EFD00F0C3
:101E500046FB9548006800F038FD0020A070FFE7C1
:101E600010BD0000FC9C000800960008E8930008E4
:101E70004496000810B500210100C9B2002922D102
:101E800000F02DFB2C4C206800F01FFD00F027FB1C
:101E9000874800F01AFD00F022FB294800F015FDEC
:101EA00000F01DFB274800F010FD00F018FB206833
:101EB00000F00BFD00F013FB234800F006FD0D20A1
:101EC0005C49087036E0C0B2012833D1594C6078C3
:101ED000002803D002282AD026D32BE0002000F0CF
:101EE000B8FC00280BD0017A302908D1417A0D299D
:101EF00002D0417A0A2902D10120607013E0002843
:101F00000BD0017A312908D1417A0D2902D0417ACA
:101F10000A2902D10220607005E0002803D0994808
:101F2000006800F0D2FC05E000F010F802E000F0DC
:101F3000C1F8FFE710BD00001C030020389B00081B
:101F4000C8960008489700083C940008F8B500249B
:101F50002000384DA878002806D0022822D014D3BB
:101F6000042869D02DD399E000F0B9FA86480068BA
:101F700000F0ABFC00F0B3FA844800F0A6FCB648D1
:101F8000846004600120A87088E0002000F061FCFB
:101F9000B14C00F063FA20602068002801D00220D4
:101FA000A8707BE000F09BFA7748006800F08DFC99
:101FB00000F095FA63213A4800F087FC0320A870EE
:101FC0006CE0002000F045FC0600002E31D0A24F4E
:101FD0007068386108E02000C0B23018007A210033
:101FE000C9B279180875641C2000C0B26428F2D305
:101FF00000F075FA2B4800F068FC7168300008307A
:1020000000F0B3FC00F06BFA5F48006800F05DFC84
:10201000386830720120706071683000083000F05C
:10202000F0FD052000F004FA01F060F828610420BA
:10203000A87033E070840020287980061FD5864E72
:10204000B0683168884208D2B068401CB06031691D
:102050003000143000F0D5FD1FE000F040FA4A488F
:10206000006800F032FC31687C4800F02EFC00F083
:1020700036FA0D48006800F028FCAC700DE02869C5
:1020800000F08AFBB949884207D300F028FAB84823
:1020900000F01BFC062000F0ADF9FFE7F1BD00BF2A
:1020A0008C930008149D0008200300205C9B00080E
:1020B000F098000838B5AF4CA078002802D001286D
:1020C00010D05DE000F00BFA2F48006800F0FDFB37
:1020D000062000F0ADF90120A0705F480021C1602A
:1020E00041604DE0207A400637D5A0684021884302
:1020F000A060594DE868002806D102488068007841
:10210000686023E038830020E868696888421DD34E
:1021100000F0E5F9984800F0D8FBC44841688068B1
:1021200000F023FC00F0DBF91748006800F0CDFB5D
:1021300000F0D5F96968AE4800F0C7FB00F0CFF9B0
:102140004748006800F0C1FB0020A070E868401C10
:10215000E86000F0CBFF206111E0206900F01CFB7B
:10216000824988420BD33C48C068022807D300F05C
:10217000B6F97F4800F0A9FB062000F03BF9FFE725
:1021800031BD0000180300201C0300200897000840
:1021900010B500210100C9B2002922D100F09FF939
:1021A000A94C206800F091FB00F099F9A74800F0D5
:1021B0008CFB00F094F9A64800F087FB00F08FF943
:1021C000A44800F082FB00F08AF9206800F07DFB53
:1021D00000F085F9A04800F078FB0F2065490870F1
:1021E00038E0C0B2012835D1624C6078002803D0B5
:1021F00002282CD028D32DE0002000F02AFB002854
:102200000BD0017A302908D1417A0D2902D0417AC8
:102210000A2902D10120607015E000280BD0017A54
:10222000312908D1417A0D2902D0417A0A2902D1F7
:102230000220607007E0002805D000F050F9C14886
:10224000006800F042FB05E000F00CF802E000F04E
:1022500095F8FFE710BD0000888000202895000851
:102260002003002070B500263000424CA0780028E2
:1022700003D002283FD00FD377E000F030F9724846
:10228000006800F022FB00F02AF96321AE4800F05C
:102290001CFB0120A07068E0002000F0DAFA0500C5
:1022A000002D27D0A06840218843A06069682800DD
:1022B000083000F0A6FC00F0B3FC00F010F9A348D1
:1022C00000F003FB69682800083000F04EFB00F0C6
:1022D00006F95D4D286800F0F8FA00F000F928686A
:1022E00000F0F3FA062000F0A3F800F0FFFE2061F2
:1022F0000220A07039E0207A400627D500F096FC35
:10230000A06840218843A06000F0E9F8904800F000
:10231000DCFA464D6968A86800F027FB00F0DFF89A
:102320004948006800F0D1FA00F0D9F82869E96856
:10233000421A6968491E874800F0C7FA00F0CFF8D2
:102340008548006800F0C1FAA6700DE0206900F031
:1023500023FA0649884207D300F0C1F8044800F088
:10236000B4FA062000F046F8FFE770BD1127000020
:102370002C9E0008708400201C99000838B5774C0A
:10238000A078002802D001280CD02FE000F0A7F898
:102390002D48006800F099FA062000F049F8012065
:1023A000A07023E0207A40061FD5A0684021884312
:1023B000A06000F094F86A4800F087FA1B4D696845
:1023C000A86800F0D2FA00F08AF81F48006800F010
:1023D0007CFA6968A86800F014FC00F080F85E4898
:1023E000006800F072FA0020A070FFE731BD000025
:1023F0008497000810B5040000F0F4F95748047001
:1024000000210A0042700A008270416010BD38B598
:102410000400002506E000F062F80B48006800F0B8
:1024200054FA6D1CA542F6D331BD0000388300205C
:1024300010B5040000F053F84A4808214C430159F4
:10244000494800F042FA10BD1C030020C099000862
:10245000C8960008749500083C94000810B5002444
:10246000002810D0417A0D290DD1017A313909297E
:1024700006D300F034F83348006800F026FA2CE068
:10248000047A303C29E0002819D0817A0D2916D130
:10249000017A30390A2903D2417A30390A2906D320
:1024A00000F01DF82748006800F00FFA15E0017AE7
:1024B00030390A225143407A30380C180DE0002898
:1024C0000BD0417A0D2902D1807A0D2805D000F079
:1024D00006F81C48006800F0F8F9200010BDFEB5B1
:1024E0001E48C06800F058F9FA218900FFF715F876
:1024F00004003C2520002900FFF70FF8060020000B
:102500002900FFF70AF8019130002900FFF705F8CC
:10251000040030002900FFF700F80D001827200004
:102520003900FEF7FAFF060020003900FEF7F5FF3C
:10253000019800902B000A003100724800F0C5F9A4
:10254000F7BD0000180300208C930008149D0008BC
:10255000C09B0008E8990008200300207084002038
:102560005C9B00088C940008189C000838B5664CE9
:10257000206800F0AAF9654800F0A7F900230322BB
:102580000121634800F0A1F9624D68690101090960
:10259000614800F09AF9A969604800F096F9E96984
:1025A0005F4800F092F95F4800F08FF96869C00059
:1025B00003D55D4800F089F902E05C4800F085F938
:1025C000206800F082F95A4800F07FF96869400FEE
:1025D000002806D002280CD007D3042811D00CD331
:1025E00013E0544800F071F90FE0534800F06DF922
:1025F0000BE0524800F069F907E051A000F065F9DE
:1026000003E0504800F061F9FFE7206800F05DF951
:10261000296A4D4800F059F9696A4C4800F055F9AB
:10262000A96A4B4800F051F92C20295C494800F078
:102630004CF92D20295C484800F047F9474800F044
:1026400044F92E20285C002803D0022809D004D3A6
:102650000BE0434800F039F90AE0424800F035F950
:1026600006E0414800F031F902E0404800F02DF961
:10267000206800F02AF92F20295C3D4800F025F958
:102680003C4800F022F93020285C002808D00128BE
:102690000AD002280CD003280ED0052810D013E051
:1026A00035A000F012F90FE034A000F00EF90BE0B5
:1026B00033A000F00AF907E0324800F006F903E021
:1026C000314800F002F9FFE7304800F0FEF828003A
:1026D0003130017842781206120C114389B22C482D
:1026E00000F0F3F828003330017842781206120C1B
:1026F000114389B2274800F0E8F8206800F0E5F8B7
:1027000031BD00002C9D00081C030020409E0008E5
:10271000349C000838830020449D00085C9D00081C
:10272000749D0008F09E00084CA0000854A000080A
:10273000A89F0008B49F0008C09F00085CA0000884
:1027400046434300549E0008009F000864A0000810
:10275000109F0008689E0008209F0008CC9F00087A
:102760006CA00008309F000874A00008D89F0008E3
:10277000409F0008509F0008504859004D414300B9
:1027800041445000E49F0008F09F00087CA000082E
:10279000609F00087C9E000810B5040000F0A6FCB5
:1027A000A04204D20021C943091B401800E0001BCD
:1027B00010BDFEE7406AC0B27047C9B2816270477F
:1027C00038B500F00FF80024B3480460446080215D
:1027D0008900220005000835280000F08DFCBB4868
:1027E000047031BD10B50022B948026042608260B9
:1027F0000821C160D821890004001034200000F0B5
:102800007BFC00F093F910BD38B5B24C2068C0696C
:10281000800608D5C448FFF7CDFFC0B200F0FBF832
:1028200008202168086240252068C06928400028E7
:102830000ED0684600F019F9A4480078022805D1A6
:1028400068460178B848FFF7B8FF01E020680562E4
:1028500031BDF8B5040000252F009D4EF06800281A
:1028600003D5BA4800F031F8F560E4B2002C24D169
:102870003068B16888420ED030686C214843301807
:10288000070010373068401C4007400F3060F06888
:10289000401CF06017E00820F06014E030686C2104
:1028A00048433018103000F059F93068401C400798
:1028B000400F3060F068401CF0603068B1688842BA
:1028C000ECD10820F0603800F2BD0EB478B59AB0B3
:1028D00001001FAA01A800F039FC0500002D3ED020
:1028E00001AC6019401E00780A2806D10D2061193C
:1028F000491E08700A2060556D1C954E306871683D
:10290000401A401E00900098002815D5009880219C
:102910008900401800900FE0012000F0F9FC3068B9
:102920007168401A401E00900098002804D5009855
:1029300080218900401800900098A842ECDB00201C
:1029400009E0215C7268B21811727168491CC905EE
:10295000C90D7160401CA842F3D300F09FF8280015
:102960001BB0039970BC04B008477CB505000C008F
:10297000002C31D0764E30687168401A401E0090AD
:102980000098002815D500988021890040180090F3
:102990000FE0012000F0BCFC30687168401A401E56
:1029A00000900098002804D50098802189004018E4
:1029B00000900098A042ECDB002009E0295C7268DE
:1029C000B21811727168491CC905C90D7160401CAB
:1029D000A042F3D300F062F8200076BD10B50100EC
:1029E00000205C4A53689468A34212D053686C2458
:1029F0006343D3181B7E0C00E4B2A34200D1012034
:102A000053685B1C5B075B0F53600200D2B2002A65
:102A1000E7D0C0B210BDF8B505002800C0B200F084
:102A20005BF804004C48017802291DD16C2201009A
:102A30000831484EB0686C235843301807001037EF
:102A40003800FEF7F9FBB068401C4007400FB0604B
:102A5000F068401EF06000F069F8E4B2012C03D188
:102A60002800C0B200F038F8F1BD00B50A490A6884
:102A70004B689A4203D10020144908700BE00A68A1
:102A80008A18127A02700868401CC005C00D0860E0
:102A900002200E49087000BD3076002080B52E4817
:102AA0007421415C00290FD1294A11685118097A13
:102AB00013685B1CDB05DB0D136001227423C25419
:102AC000C9B21948FFF779FE01BD000074810020EA
:102AD000C0720020FC7F002000B5010000201E4ACB
:102AE0005368D318197453685B1C53605368002BE8
:102AF00001D0012313700B00DBB20D2B02D0C9B241
:102B00000A2904D15168D160022111700AE051688C
:102B1000642907D301200D217323D1546421D1608E
:102B200002211170C0B200BD0044004010B5002267
:102B30000948110001704260FF218160C260642178
:102B400004001034200000F0D7FA10BD109A0008DD
:102B500030760020C0720020008100207047FEE720
:102B600080B51300DBB2002200F03FFC01BD80B550
:102B70001300DBB2002200F07FFC002801D101200D
:102B800000E0002002BD38B5AC4908600024AC4824
:102B90002100418021008182210081752100018373
:102BA00021004183210001772100C183210001869A
:102BB000210032228154210081862100C1863821E2
:102BC0002200AB4D280000F097FAB14821000170B7
:102BD00021004170847031BD80B5AE480078012875
:102BE00005D100F077F90120A949087008E0A8484C
:102BF0004178022902D100F092F901E001214170EF
:102C000001BD10B5002204E0835CB14CA41823720E
:102C1000521C642AF8D3AE48416000F0D5F910BDCB
:102C200080B500F063FA9249C86001BD80B500F03C
:102C30005DFA8F49086101BD38B505002878002884
:102C400021D0152800D19CE0192824D025281BD09C
:102C5000B32800D191E0B72827D0B9281CD0BB28D1
:102C600000D186E0C12810D0C42827D0C62826D09D
:102C7000D12858D0D22865D0D42848D0D8283AD0E6
:102C8000DF281DD087E086E085E0794801680122D1
:102C90000A4302607FE07EE0280000F0D3F8744829
:102CA000016804220A43026075E0280000F0BDF8C4
:102CB0006F48016802220A4302606CE06BE06AE040
:102CC00074480078002810D1280000F0D3F870482C
:102CD0004178002902D10221417006E041780129A2
:102CE00003D10221417000F01AF9614801680822FD
:102CF0000A4302604FE0280000F0B1F86448017810
:102D0000002903D00021017000F009F943E00220FE
:102D1000AC494870280000F0BFF8554801681022FF
:102D20000A43026037E05A488178002909D000211F
:102D30008170280000F0B1F84D48016820220A4354
:102D4000026028E0280000F0A9F852480178002924
:102D500003D104209B49487005E00078012802D186
:102D60000520984948704248016840220A430260A1
:102D700011E00020934948700DE00020914948700F
:102D800009E0280000F09BF8394801688022920091
:102D90000A430260FFE7002421000C35286800F098
:102DA00035FC2C6000F03FFC31BD38B504001A251D
:102DB0000C3D200000F026F82818801FE17C401808
:102DC00080B232BD10B50400FFF7EFFF201810BD30
:102DD00010B50400FFF7E9FF2018401C10BD1CB51A
:102DE000B24C00220021200000F0F9FC00210191EA
:102DF00080B20090230014220121AD48006800F049
:102E000052FD13BD00B5010003200A78022A01D14A
:102E1000801C03E00978032900D1083080B200BD8E
:102E2000A44800214170007870474068017A427AD6
:102E30001206120C11430248418070479885002009
:102E40000083002000B540680178002906D1C178D0
:102E500002791206120C11439748018600BD00B595
:102E600040680178002902D140789349087700BD75
:102E70003883002080B54068FFF7AAFF6A4600A9A2
:102E8000891C00F0FAFB684600888B49C88301BDA5
:102E90009C8500208DA000087047704780B5406871
:102EA000FFF790FF02002632117853781B061B0CA7
:102EB0001943824A89B251602830906001BD10B533
:102EC000212241687E4C2000FEF7B6F910BD0000BB
:102ED000647D002038B586B0774C0120208000F05A
:102EE00081FDA0826288A18A02A800F09DFB754D39
:102EF0007548009007232288D2B202A9280000F06A
:102F0000F9FB0021019180B200902B00D722012112
:102F10006748006800F0C7FC032007B030BD10B55B
:102F200086B00021274A517068490A78012A1CD1CD
:102F3000614C00F057FDA0826288A18A02A800F0CF
:102F400073FB0120A0756248208362486083201DC6
:102F500002A91022FEF770F9608B0090238B02AA61
:102F6000A17D5D4800F04AFC1EE0097800291BD1D4
:102F7000514CE28B218E02A800F056FB0220322138
:102F800060545448A0865248E0862000203002A9B0
:102F90001022FEF751F9E08E0090A38E02AA322093
:102FA000215C4D4800F02AFC0021019180B2009084
:102FB000494BD32201213E48006800F074FC0120F7
:102FC00006B010BD948500201FB500243A480521A5
:102FD00001803E490978012913D102881100491C5A
:102FE00001803E49837D02930B00083301934968B9
:102FF00089B20091038BD2B2011D394800F012FC56
:1030000014E002881100491C018034493223C35C5A
:1030100002930B0008330193496889B20091838EB3
:10302000D2B2010020312E4800F0FCFB00210191BA
:1030300080B200902A4BD02201211D48006800F088
:1030400032FC0120274988702000C0B204B010BDB6
:10305000E0B500F0E8FC002101910021009103009F
:10306000BA2201211248006800F01DFC00200EBDAC
:10307000E0B500F0D8FC002101910021009103008F
:10308000B22201210A48006800F00DFC00200EBDAC
:1030900010B5084C14482178182251434018617823
:1030A0000422514340588047207010BDF084002016
:1030B000988500209485002000830020388300201C
:1030C0004C8300207064002044A000088DA00008FC
:1030D0002222000011110000CC830020647D00201A
:1030E0008C5800209C850020880200200148006840
:1030F000704700BF408500201206130A1A43130CC4
:103100001A4300BF094205D0830707D00270401C54
:10311000491EF9D1704700000022FFE71300103963
:1031200006D330B41400150010393CC0FCD230BCBA
:10313000490700D30CC000D504C0890002D3028027
:10314000801C002900D502707047FEE716B582B0DA
:10315000040001940020009003AB0A0001A9074875
:1031600078441830FCF7A8FF0021019A117000285C
:1031700001D40198001B04B010BD00BF67E0FFFF41
:1031800000B5EFF30580002807D1EFF31080002889
:1031900006D022480068022802D10520C04309E079
:1031A0001E480168002903D101210160002001E0CF
:1031B0000020C04300BD80B5EFF30580002807D193
:1031C000EFF31080002806D014480068022802D1CE
:1031D0000520C0430BE011480168012905D10221F7
:1031E000016000F03DFD002001E00020C04302BD71
:1031F000642070470000000010B572B600F0CAFDF0
:103200000400414800686421FEF787F9444362B630
:10321000200010BD3C480068704700000885002071
:10322000F0B587B00300080000240494EFF3058193
:10323000002965D1EFF31081002903D033490968D3
:1032400002295DD006930699002959D08021059165
:10325000182321006D46297303A90025ED43002A98
:1032600031D01668002E00D011689669002E00D06B
:103270009369002B06D0392B04D2012657683740BA
:10328000002F01D000203CE05769002F02D0576981
:10329000BF0805979768002F0AD0D7685C2F07D31F
:1032A0001769002F04D05769002F01D035000BE0BB
:1032B0009668002E08D1D668002E05D11669002E1A
:1032C00002D1250000E02500012D0BD19468029465
:1032D0001269019200930300059A069800F0A8FB7A
:1032E00004900DE0002D0BD104AA0192009303007D
:1032F000059A92B2069800F0C8FB012800D0049409
:10330000049807B0F0BD000084020020088500206A
:1033100010B5EFF30581002907D1EFF310810029E3
:1033200006D007490968022902D10524E44304E0D4
:103330000024002801D000F06DFC200010BD00002A
:1033400008850020F8B500263500EFF30583002B33
:1033500049D1EFF31083002B03D0464B1B68022B9F
:1033600041D000283FD000293DD014000023DB438A
:10337000002C1DD0A268002A0CD0E268502A09D384
:103380002269002A06D0676902004A43974201D3A6
:1033900001230EE0A268002A0BD1E268002A08D1BE
:1033A0002269002A05D16269002A02D1330000E0B7
:1033B0003300012B07D100220092A368226900F09C
:1033C0009FFF050005E0002B03D1002200F0CEFF97
:1033D0000500002D07D0002C01D0216800E031004D
:1033E000280001F070FA2800F2BD38B51D00002257
:1033F0001400EFF30583002B07D1EFF31083002BAC
:103400001ED01C4B1B68022B1AD1002803D00029A8
:1034100001D0002D02D00324E44325E000920023D4
:103420006A4601F079F8012802D00224E4431BE047
:103430000098002818D0802040050D49086013E04E
:10344000002801D0002902D10324E4430CE000232A
:103450002A0000F0BFFF012806D0002D02D0012471
:10346000E44301E00224E443200032BD00000000F8
:1034700004ED00E00885002038B51D00002214008E
:10348000EFF30583002B07D1EFF31083002B1DD042
:10349000214B1B68022B19D1002803D0002901D031
:1034A000002D02D00324E44323E000926A4601F099
:1034B0001BF9012802D00224E4431AE000980028F6
:1034C00017D0802040051549086012E0002801D07F
:1034D000002902D10324E4430BE02A0001F072F832
:1034E000012806D0002D02D00124E44301E002248B
:1034F000E443200032BD0A4B03600A480860802084
:1035000010607047084B0360084808608020400046
:1035100010607047000000000885002004ED00E006
:10352000788100203C7A0020D4810020C06E0020E9
:1035300080B270470268120C12040260026889B2FD
:103540000A430260704710B5002000E0401C0200F2
:1035500092B2052A0BDA314A03009BB2812424017E
:103560005C43125D002AF1D10880012000E00020B8
:1035700010BDF8B504000D0069462000FFF7E3FF19
:10358000C0B2002801D1002024E068468570812760
:103590003F01224D68460088784328180600083607
:1035A000346068460188301DFFF7C4FF012069467A
:1035B00009884F43E8558021090168468078002832
:1035C00006D089B20022340008342000FFF794FDB1
:1035D00030000830F2BD80B54068FFF7A9FF8121B7
:1035E000090141430D480022425401BD80B50A0043
:1035F0000021012801DA002007E00949884201D3AF
:10360000002002E00021FFF7B4FF02BD80B50028D2
:1036100002D00838FFF7DFFF01BD000028030020BB
:1036200001080000704770477FB502AB974C60CC33
:1036300060C3083C083B6B46954C60CC60C3083CBB
:10364000083B6B460C00A4B2240A1C705970110090
:1036500089B2090A9971DA710022110003E002AC03
:10366000645C4454491C0829F9D303E0995C84182C
:103670002172521C082AF9D37FBDF0B504000D0059
:1036800016000827380080B20221FDF743FF010031
:1036900089B202224A43A218117853781B061B0CE8
:1036A000194380B202224243A218107853781B06B5
:1036B0001B0C1843090280B2000A08432880380016
:1036C00080B2022141436118891E08784A781206A7
:1036D000120C1043BFB2022179436218921E117876
:1036E00053781B061B0C1943000289B2090A0143D7
:1036F0003180F0BD70B514001D00060030001022AE
:10370000FDF79AFD347428007074000AB074280024
:1037100080B2604988420FD20499ADB22A003400C9
:1037200013342000FDF788FD707CB17C0906090C7C
:103730000843133080B209E000210800002802D0BD
:103740005548884701E000F06DF9002070BD10B5C4
:103750000400080011002072000A60720822200094
:10376000FDF76AFD0A2010BD30B504000800150001
:10377000210001F0E5F825712D0A6571062030BDA4
:10378000F8B514001D000600082237003800FDF7C8
:1037900053FD10222100340008342000FDF74CFDB9
:1037A00035762D0A75761A20F2BD38B50C00110059
:1037B00004702200D2B208235A43451C2800FDF7AA
:1037C0003BFDE4B208204443641C200080B232BDBB
:1037D000017001207047017042708370704710B50E
:1037E00003000C0010001C70591C01F0A9F8E4B291
:1037F000002C01D1012000E0052010BD38B50400E7
:10380000080011001D002070601C1022FDF714FD3F
:1038100065742D0AA5746846008AE074000A207554
:10382000152032BDF8B51400069D089E0700B81C8F
:103830001022FDF701FD68460088B874000AF8748C
:103840003C7028003875000A78757E70280080B2B8
:10385000104988420FD20799ADB22A003C001634B5
:103860002000FDF7E9FC387D797D0906090C084345
:10387000163080B209E000210800002802D0074875
:10388000884701E000F0CEF80020F2BD0CA000084F
:1038900014A00008DD050000649800089498000852
:1038A00001814281704770B586B00A9D0B9C6E46BF
:1038B000317069464A700193029503A96A4668CA45
:1038C00068C10C3A0C392300002203A90068FFF7F5
:1038D0008CFD002801D0002000E0012006B070BD62
:1038E00080B5130000220068FFF7C6FD002801D054
:1038F000002000E0012002BD70B586B00A9D0B9C3F
:103900006E46317069464A700193029503A96A4672
:1039100068CA68C10C3A0C392300002203A9406828
:10392000FFF763FD002801D0002000E0012006B071
:1039300070BD80B5130000224068FFF79DFD002890
:1039400001D0002000E0012002BDFEE710B5324C9E
:1039500061882288914201D300200DE02F496288BE
:1039600094235B005343C91894225200FDF764FC72
:103970006088401C6080012010BD80B5264A5060E0
:103980000800002800D0884701BD80B52249496859
:10399000884702BD30B50121002200E0521C13000F
:1039A0000C009BB2A4B2A3420CD294235B001B4C2C
:1039B0001500ADB25D436559A842EFD192B25343B1
:1039C000E01800E0002030BD1CB55320FFF7E2FFF7
:1039D0000222010008316C462000FDF72DFC6846EC
:1039E000008816BD1CB55020FFF7D4FF022201004D
:1039F00008316C462000FDF71FFC6846008816BDA4
:103A000080B5054801210180002141800021044842
:103A1000FFF7B3FF01BD0000B084002000000020CC
:103A20004D3900087047014870470000A585002007
:103A300078B585B00B9D002D01D172B6FEE70C9CC8
:103A4000002C01D172B6FEE75C260096009E5C2E2B
:103A500001D072B6FEE7002C12D0002D10D02563E5
:103A600002255926A55500250395029404AD01951C
:103A70000A9D009500F040F8200000F08BF801E06E
:103A800000200490049806B070BDF7B584B007001C
:103A90001D006846018B0420484300F05BFF0600D0
:103AA000002E0BD05C2000F055FF0400002C01D04C
:103AB000266304E0300000F0BBFF00E00024002C8F
:103AC00015D02B0005993800002259256255002297
:103AD000039202940D9A01920C9A00926A46128BFC
:103AE00000F00AF8200000F055F8012001E0002065
:103AF000C04307B0F0BD0000F1B582B00E00150064
:103B00001F000A9C04216943A522206B00900098A5
:103B1000FFF7F2FA0098206B04214D434019001F73
:103B20000721884300900098400701D072B6FEE755
:103B30000025280000E0401C102806D2315C221825
:103B40003423D154315C0029F5D1089E280043214B
:103B50006054382E00D33726E662E6642565201DC2
:103B600001F00DF82000183001F009F82461382028
:103B7000801BA06164626565582025543A00029953
:103B8000009801F03BF820600998002801D00998BE
:103B90000460F7BD38B5040001F068F829480168F1
:103BA000491C0160284D2968002906D12C60006855
:103BB00001280CD100F056FA09E0244800680028DA
:103BC00005D1E06A2968C96A884200D32C60204880
:103BD0000168491C0160006860641E480168E26A6F
:103BE000914201D2E16A0160211D1B48E26A14235F
:103BF0005A43801800F0C6FF01F042F813480068ED
:103C0000002806D02868C06AE16A884201D201F023
:103C100023F831BD10B504000020002C0DD00F4852
:103C20000068002801D072B6FEE700F051F80021CC
:103C3000200000F0EFFA00F053F8002801D101F065
:103C40000BF810BD548500204485002060850020BD
:103C5000708500205C850020606A00207C85002043
:103C600038B586B000240494039405AA03A904A8D7
:103C7000FFF741FC4D4D04980290039801900020FD
:103C800000900023059A4A494A48FFF7D1FE286070
:103C90002868002801D0012000E02000012801D17F
:103CA00001F02EF801280DD172B60020C043424920
:103CB00008600120094908607548046000F0B7FFFA
:103CC00007B030BD0021C9438842F9D172B6FEE782
:103CD00035480168491C016070470000608500207C
:103CE000F8B50024250027002F4E3068002801D1A8
:103CF00072B6FEE700F0BAFF3068401E30603068F0
:103D0000002843D125480068002821D13EE0C06842
:103D1000C5682800183000F05CFF281D00F059FF2E
:103D200020480168EA6A914201D2E96A0160291DCE
:103D30007748EA6A14235A43801800F023FFE86AA0
:103D400074490968C96A884202D301207E49086023
:103D5000134801680029DAD1002D01D000F0E3F901
:103D60006D4D2E68002E0AD000F028F8002802D0F1
:103D7000012075490860761E002EF5D12C6072482E
:103D80000068002802D0012700F066FF00F078FFED
:103D90003800F2BD3E48006870470000548500209E
:103DA0000C8400205C8500207C8500207885002024
:103DB0002CA000085140000874850020F8B50024AC
:103DC0007E480068002857D1314807687F1C07608B
:103DD000002F11D15D4908680068002801D072B633
:103DE000FEE708685A4A13680B601060744801685F
:103DF000491C016000F097F9724E306887422CD35D
:103E00001FE0281D00F0E5FEA86A002803D0280066
:103E1000183000F0DEFE6C480168EA6A914201D277
:103E2000E96A0160291D3A48EA6A14235A43801856
:103E300000F0A8FEE86A37490968C96A884200D3D9
:103E40000124424801680968002911D00068C0684F
:103E5000C56868688742D4D230602E4800682C4913
:103E6000C06A142250430858022809D3012407E0ED
:103E70000020C0433060F0E727480168491C01601A
:103E800031480068002800D001242000F2BD000065
:103E90005885002010B549480068002803D001204B
:103EA0002949086023E0002027490860464908683E
:103EB00000E0401E164A14234343D358002B03D17D
:103EC0000028F6D172B6FEE714234343D218536894
:103ED0005B685360536814000834A34202D15368EE
:103EE0005B6853605268D2680A4B1A60086010BD64
:103EF00010B50C00002801D172B6FEE7054909682B
:103F0000183100F04BFE0121200000F083F910BDB4
:103F1000606A0020448500206485002038B50C00CC
:103F2000002801D172B6FEE715006E490968183104
:103F300000F028FE2000002D01D00020C043290001
:103F400000F068F931BD0000688500204885002038
:103F50004C85002010B5C068C468002C01D172B631
:103F6000FEE72000183000F034FE144800680028F6
:103F700012D1201D00F02DFE13480168E26A914223
:103F800001D2E16A0160211D5548E26A14235A43B7
:103F9000801800F0F7FD04E021001831524800F0CD
:103FA000F1FD50480068C06AE16A884204D20121EC
:103FB0000800264A116000E0002010BD7C8500202A
:103FC0006C850020748500205C85002047490968C5
:103FD00001605E49096841607047000038B504001F
:103FE000002C01D172B6FEE70D00002D01D172B692
:103FF000FEE700F03BFE554800686168411A2A68F8
:104000000023DB439A4201D1002417E0374A1268AB
:1040100023689A4204D06268904201D301240DE0E3
:104020002868814207D22868401A28602000FFF7DC
:10403000CDFF002402E000202860012400F020FED3
:10404000200032BD012001490860704768850020CA
:1040500080B500F029F8224800680228F9D300F062
:10406000FBFDF6E738B5002406E01D481421614346
:10407000401800F075FD641C382CF6D33C4D280028
:1040800000F06EFD3B4C200000F06AFD164800F089
:1040900067FD394800F064FD384800F061FD38489C
:1040A00005605348046031BD38B513E000F0DEFD13
:1040B0003148C068C568281D00F08BFD4D48016877
:1040C000491E01602068401E206000F0D9FD2800D4
:1040D00000F00EF8484C20680028E7D131BD000000
:1040E000606A0020448500200C8400206C8500203C
:1040F00010B504005920205C002806D1206B00F088
:1041000097FC200000F094FC10BD5920205C012891
:1041100003D1200000F08CFCF6E75920205C022837
:10412000F2D072B6FEE700B51548016809680029AB
:1041300004D10020C0433249086005E00068C0682F
:10414000C06840682E49086000BD00005885002006
:1041500000B52C480068002801D1012006E02A485B
:104160000068002801D1022000E0002000BD00000E
:10417000E4830020F8830020208400203484002081
:104180004885002010B501000C00002000292DD02A
:104190001A4909688C4201D072B6FEE7216D0029E8
:1041A00001D172B6FEE7216D491E2165E16AE26C1C
:1041B00091421BD0216D002918D1201D00F009FD6E
:1041C000E06CE0623820E16A401AA06110480168A2
:1041D000E26A914201D2E16A0160211D0B48E26A64
:1041E00014235A43801800F0CDFC012010BD0000BC
:1041F0004C850020548500205085002044850020F7
:1042000074850020608500207C850020606A002085
:104210005C850020F8B507000C0017480568154EAE
:104220003068001D00F0D5FC0020C043874207D154
:10423000002C05D03068011D104800F0A3FC16E0EA
:10424000EC1930684460AC4206D23068011D0C485D
:10425000006800F0A3FC0AE03068011D094800680E
:1042600000F09CFC084801688C4200D20460F1BD5B
:104270000000000044850020588500203484002080
:104280004C850020488500207485002038B5050045
:104290000C00002D01D172B6FEE700F0E7FC2868A3
:1042A000E96B2A6C5143401868600020A8632868B5
:1042B000A8602868E96B491E2A6C51434018E860E1
:1042C0000020C0434421685445216854002C0BD180
:1042D0002869002810D028001030FFF73BFE002886
:1042E0000AD000F0B9FC07E02800103000F038FCDC
:1042F0002800243000F034FC00F0C2FC012032BD64
:104300007CB5002801D172B6FEE7002B01D172B650
:10431000FEE7002A01D0002901D0012400E000249A
:10432000E4B2002C01D172B6FEE7002A01D10029C7
:1043300001D1012400E00024E4B2002C01D172B6C6
:10434000FEE750240094009C502C01D072B6FEE78A
:104350001C00002C07D0069B01254626A55500947D
:10436000DBB200F025F8200076BD0000F8B50400AF
:104370001600002C01D172B6FEE70F00002F01D10C
:10438000002001E020007843503000F0E3FA0500FF
:10439000002D0BD033002A005032002046216854F3
:1043A0000095DBB23900200000F002F82800F2BDD1
:1043B00038B5049C002901D1246000E022601D0072
:1043C000E063216401212000FFF760FF4C202554A9
:1043D00031BD0000F6B583B0002635000400002C86
:1043E00001D172B6FEE700910098002802D1206C3E
:1043F000002801D1012000E03000C0B2002801D126
:1044000072B6FEE71F00022F02D1E06B012801D136
:10441000012000E03000C0B2002801D172B6FEE7F2
:10442000FFF796FE002802D10498002801D1012050
:1044300000E03000C0B2002832D172B6FEE7049826
:1044400000284ED0002D03D101A8FFF7BFFD0125A4
:1044500000F016FCFFF73CFC00F008FC0020C04315
:1044600044216156814202D131004422A1544521A8
:104470006156814202D130004521605400F000FCB9
:1044800004A901A8FFF7AAFD00283DD1200000F0F3
:104490000AFA002829D1200000F0BFF9FFF720FC1C
:1044A00000F0E4FBA06BE16B884201D3022FC6D180
:1044B0003A000099200000F05BF9616A002908D0F9
:1044C00020002430FFF746FD002806D000F0C4FB92
:1044D00003E0002801D000F0BFFB00F0D1FB012079
:1044E00018E000F0CDFB002014E00499200010300B
:1044F000FFF7FEFC200000F090F9FFF7F1FB002829
:10450000CED100F0A9FBCBE7200000F086F9FFF741
:10451000E7FB002005B0F0BDFEB516000400002C3E
:1045200001D172B6FEE701910198002802D1206CFA
:10453000002801D1012000E00020C0B2002801D1F4
:1045400072B6FEE700930098022802D1E06B0128C2
:1045500001D1012000E00020C0B2002801D172B6D4
:10456000FEE700F0E5FD0700A06BE16B884202D397
:10457000009802281FD145202556009A0199200055
:1045800000F0F6F828000021C94340B288420DD15E
:10459000606A00280DD020002430FFF7DBFC0028E3
:1045A00007D0002E05D00120306002E06D1C4520B0
:1045B0002554012400E00024380000F0BDFD200057
:1045C000FEBD0000F6B583B000273E000400002CBD
:1045D00001D172B6FEE700910098002802D1206C4C
:1045E000002801D1012000E03800C0B2002801D12C
:1045F00072B6FEE7FFF7ACFD002802D10498002850
:1046000001D1012000E03800C0B2002806D172B606
:10461000FEE7200000F001F9FFF762FB00F026FB47
:10462000A56B002D06D10498002818D100F028FBB6
:10463000002057E00099200000F0DAF86D1EA56315
:104640002069002807D020001030FFF783FC0028E5
:1046500001D000F001FB00F013FB012042E0002E2E
:1046600003D101A8FFF7B2FC012600F009FBFFF718
:104670002FFB00F0FBFA0020C04344216156814229
:1046800002D139004422A15445216156814202D110
:1046900038004521605400F0F3FA04A901A8FFF79F
:1046A0009DFC002813D1200000F0EEF80028B0D0C7
:1046B000049920002430FFF71BFC200000F0ADF827
:1046C000FFF70EFB0028A9D100F0C6FAA6E72000EC
:1046D00000F0A3F8FFF704FB200000F0D5F8002855
:1046E0009CD0002005B0F0BDF7B50400002C01D12E
:1046F00072B6FEE700910098002802D1206C0028D5
:1047000001D1012000E00020C0B2002801D172B622
:10471000FEE700F00DFD0700A66B002E21D044201F
:1047200025560099200000F063F8761EA663280045
:104730000021C94340B288420ED1206900280ED022
:1047400020001030FFF706FC002808D0029800284F
:1047500005D00121016002E06D1C44202554012494
:1047600000E00024380000F0E7FC2000FEBD00005F
:10477000F8B5040000260096A56B206C002808D12F
:104780002068002830D16068FFF7FCFC009066606C
:104790002AE01600002E0FD1226CA6683000FCF72C
:1047A0004BFDA068216C4018A060A0686168884239
:1047B0001AD32068A06017E0226CE7683800FCF785
:1047C0003BFDE068216C4A428018E060E0682168A7
:1047D000884204D26068216C4A428018E060022E50
:1047E00002D1002D00D06D1E6D1CA5630098F2BD96
:1047F00010B50C00016C00290ED0C168026C89183C
:10480000C160C1684268914201D30168C160026C15
:10481000C1682000FCF710FD10BD70B5040000F069
:1048200025FA4520255608E020002430FFF792FBAA
:10483000002801D0FFF706FC6D1E280040B20128B9
:1048400002DB606A0028EFD10025ED4345202554A6
:1048500000F016FA00F00AFA4420265608E020007C
:104860001030FFF777FB002801D0FFF7EBFB761E37
:10487000300040B2012802DB20690028EFD144203B
:10488000255400F0FDF970BD10B5040000F0EEF9FC
:10489000A06B002801D1012400E0002400F0F0F911
:1048A000200010BD000010B5040000F0DFF9A06B7F
:1048B000E16B884201D1012400E0002400F0E0F91E
:1048C000200010BD000010B5002200E0521C082A94
:1048D0000CD2074B082454431C59002CF6D1082451
:1048E0005443195108214A439918486010BD0000EB
:1048F0008082002070B50D001600040000F0B6F9AB
:104900000020C04344216156814202D1002144224B
:10491000A15445216156814202D1002045216054B5
:1049200000F0AEF9A06B002805D13200290020006C
:104930002430FFF7F3FA2000FFF76FFF70BDFEE7AA
:1049400084460870000A4870000A8870000AC8701F
:1049500060467047FEB5050000240094FFF7B8F9E3
:1049600078480068002801D100F090F82900764FBF
:1049700038680840002851D100290ED073480068DB
:1049800009180720014208D00A0008320140511AD4
:104990000840002801D072B6FEE700293ED06C4DD9
:1049A000286888423AD36B480190066801E0019676
:1049B00036687068884202D230680028F7D16148B2
:1049C000006886422AD06148019A12680368D218AA
:1049D00000923268019B1A60006840007268521AA7
:1049E00090420BD270180200520701D072B6FEE757
:1049F0007268521A4260716000F075F82868716838
:104A0000401A2860544829680268914201D22968F6
:104A1000016070683968014371603460FFF760F9C4
:104A20000098400701D072B6FEE70098FEBD000076
:104A300010B50100002828D04448006842428C1874
:104A40004148616802680A40002A01D172B6FEE757
:104A50002168002901D072B6FEE7616802680A4049
:104A6000002A12D0216800290FD1616800688143B3
:104A70006160FFF72DF936480168626889180160A6
:104A8000200000F030F8FFF72BF910BD10B58022A0
:104A900052013249080043075B0F002B04D0C01DB0
:104AA00007239843121A52182A4B186000215960A4
:104AB0008218264B1B68D21A07239A43214B1A608F
:104AC0001C6861601C682160111A416019680160EE
:104AD0004168214A116040681D4908608020000635
:104AE0001949086010BD10B51A4900E009680A6844
:104AF0008242FBD30A004B68D218824204D14A6832
:104B0000406810184860080002004368D2180B681B
:104B10009A4210D10B4A0B681468A34208D042682D
:104B20000B685B68D21842600A681268026004E091
:104B30001268026001E00A680260814200D00860E9
:104B400010BD0000308500203C85002084A00008B6
:104B500034850020E884002038850020782B002050
:104B60000100083141600021C94381600100083122
:104B7000C16001000831016100210160704700211E
:104B80000161704742684A6093688B60936859601E
:104B9000916008610168491C0160704710B50B689D
:104BA0000022D243934201D1026907E00200083299
:104BB00000E0526854682468A342FAD253684B60FC
:104BC0004B6899608A60516008610168491C016006
:104BD00010BD00B50169826843689A6042688368C5
:104BE0005A604A68824201D182684A6000220261AA
:104BF0000868401E0860086800BDFEE7001F8023AB
:104C00005B040360001F0160001F35490160143818
:104C1000026020387047000000B53248006800216B
:104C2000C943884201D072B6FEE772B6FEE780B58E
:104C30002D480168FF2212040A4302600168FF2226
:104C400012060A43026000F03AF800202549086085
:104C500000F05DFA002002BD802040052349086075
:104C6000BFF34F8FBFF36F8F7047000072B61D48C0
:104C70000168491C0160BFF34F8FBFF36F8F70470E
:104C800000B518480168002901D172B6FEE7016835
:104C9000491E01600068002800D162B600BD10B551
:104CA00000F046FA0400FFF789F8002803D08020BE
:104CB00040050E490860200000F03EFA10BD10B516
:104CC0000B4C002020600B4908600B4800686421F1
:104CD000FCF723FC401E094908600720206010BD36
:104CE000194C00087802002020ED00E004ED00E0FF
:104CF00010E000E018E000E08402002014E000E092
:104D000038B586B000252C0000F0A6F97B48006875
:104D1000002818D00495039505AA03A904A8FEF756
:104D2000F1FB774D049802900398019002200090C7
:104D30000023059A73497448FEF77AFE28602868B4
:104D4000002800D00124002C01D172B6FEE720001B
:104D500007B030BD7FB505001E000020002D01D139
:104D600072B6FEE7654C2368002B1CD000910192BF
:104D70000295062911DAFFF7EBF9022806D1089A05
:104D8000002369462068FFF725FB0CE00023002282
:104D900069462068FFF71EFB05E0002332006946E4
:104DA0002068FFF7B9FB04B070BD00007CB50500BA
:104DB0000E00A8480068C068C468201DFFF709FFFE
:104DC000E069012814D132002B00A06929182000C5
:104DD00000F074F800280BD00020009000232A0077
:104DE00000212000FFF7B6FF002801D172B6FEE7D0
:104DF0002000616A884773BD80B5684600F037F8C7
:104E0000009900F003F800F081F8F6E77CB50400A3
:104E10000E00FEF75DFF684600F03DF805000098C3
:104E2000002821D13200002A08D1A54206D3FEF77E
:104E300057FF29002000FFF7B9FF17E0002A07D02D
:104E4000984800680068002801D1012200E0002293
:104E5000611B2A480068FFF74DFDFEF741FF00285F
:104E600004D1FFF7F9FE01E0FEF73AFF73BD00B58C
:104E700078490A681268002A01D1012200E0002264
:104E8000D2B202600068002803D10868C0680068D8
:104E900000E0002000BD70B50400FEF77BFF0500B8
:104EA000814E3068854204D200F0A0F801202060D5
:104EB00001E0002020603560280070BD10B500249E
:104EC000416000618A420BD3D11A8269914201D3B9
:104ED000012410E0011D73480068FFF75FFE0AE03F
:104EE0009A4203D2994201D3012404E0011D59489A
:104EF0000068FFF753FE200010BD000088850020E9
:104F00008C85002034A00008F94D000810B586B04B
:104F1000FFE7002201A965480068FFF753FB00285E
:104F200061D00198002809D501A8021D002A01D1ED
:104F300072B6FEE7916850681268904701980028A1
:104F4000E7D4039C6069002802D0201DFFF741FED2
:104F500005A8FFF7A0FF0200019800280ED0022844
:104F60000CD00BD3042827D025D3062806D031D364
:104F7000082820D002D309281ED033E0029B0298D3
:104F8000A16941182000FFF799FF0028C1D0200037
:104F9000616A8847E0690128BBD1002000900023A6
:104FA0000298A169421800212000FFF7D3FE0028D3
:104FB000AFD172B6FEE7ACE70298A061A069002805
:104FC00006D01300A06911182000FFF777FFA0E7B3
:104FD00072B6FEE72C20205C002802D12000FFF7EB
:104FE00027FD96E795E706B010BD00007CB505E00B
:104FF00060602461211D2868FFF7D0FD154D2868E9
:10500000006800281FD02868C06806682868C06843
:10501000C468201DFFF7DDFD2000616A8847E06954
:105020000128EBD1A06930188642E1D3002000901E
:105030000023320000212000FFF78CFE002800D062
:10504000DCE772B6FEE7286816490A682A6008603D
:1050500073BD0000808500207CB5FFF707FE134C70
:10506000206800281BD1124E3000FFF779FD114D4A
:105070002800FFF775FD104806600A48056000200B
:1050800000900E4B0E4A10210A20FFF739F92060DC
:105090002068002803D00B492068FFF714FCFFF7B5
:1050A000EFFD73BD84850020908500208885002059
:1050B000488400205C84002080850020308200200D
:1050C000D07E00203CA0000880F308887047EFF3F2
:1050D00009801B4B1A6820381060F0C044464D46CA
:1050E00056465F46F0C008B572B6FEF7D3FE62B60C
:1050F0000CBC116808681030F0C8A046A946B2463A
:10510000BB4680F309882038F0C8184770470C4B1D
:1051100019680868203080F30988022080F3148819
:10512000BFF36F8F3FBCAE4608BC04BC62B61847E5
:10513000EFF3108072B6704780F31088704700005C
:105140004485002070B5042200231C0000E0641C8C
:105150001500ADB2AC4211D21D0000E06D1C202D37
:10516000F5D20426664386197668EE40F607F5D434
:105170002020444360190880012000E0002070BD19
:1051800030B50A0092B25209C906C90E01231400B3
:10519000A4B20425654344196468CC401C40002C2B
:1051A00001D100200DE01400A4B204256543441988
:1051B00064688B409C4392B2042151434018446080
:1051C000012030BD00B50068096802880B889A424A
:1051D00002D20020C04306E009880088814201D243
:1051E000012000E0002000BD10B50C001900491C92
:1051F00092B204235343C218C64BD450C64B042268
:1052000089B2C44C001900F049FF10BDFEB504215D
:105210006A46118000210A000B00BE4BC31801939F
:10522000BD4B02930B0000E05B1C6C462488A3423C
:1052300022D20C0000E0641C202CF5D204255D4332
:1052400045196D68E540ED07F5D520255D432D191D
:10525000ADB218266E4385192E001836019FBC4644
:105260001700BFB204257D4367467E51521C1500CE
:105270000688ADB2B542DED3029B042201880198B4
:1052800000F00CFFF7BDF8B5040008001900069DFA
:1052900080B218234343E0180600183632800822F3
:1052A000B71C3800FBF7C8FF00F00DFF2A000023F1
:1052B00012184B41300010300CC008382388228867
:1052C00031002000FFF790FF2088401C2080F1BDB6
:1052D000FEB507000E0014001D0001A93800FFF7FD
:1052E00031FF002801D1002009E0230032000095A1
:1052F00092B2684681883800FFF7C5FF0120FEBDE5
:10530000F8B504000F00182520001830381A2900BD
:10531000FCF700F90600290000252A003800FDF7F7
:10532000EBFEC82149002A007A4825182800FDF71D
:10533000E3FE310089B22000FFF722FF2088401EE3
:1053400020802088002802D02000FFF75FFF012086
:10535000F2BD38B588B004000D0002A81821FDF791
:10536000DBFE6846058102A801902088002801D153
:1053700000200DE068480090042322886548211829
:1053800001A800F01DFF002801D1002000E0006806
:1053900009B030BDF8B50F0006885E4945180024F5
:1053A000009400E0641C2000310080B289B2884281
:1053B00010D208223900200080B204234343E85869
:1053C000801C00F01BFF0028ECD1A4B20420604335
:1053D000285800900098F2BD10B50822841C2000C7
:1053E000FBF72AFF10BD38B50C00150000F06BFE6E
:1053F0002A00002312184B41200010300CC008383E
:1054000031BDF8B5050043482C582000103003C8C2
:10541000012613E0320092B204235343EA183D4BB5
:10542000D7583A0010320CCA8B4206D801D38242B8
:1054300003D23C003800103003C8761C32002B88A1
:1054400092B29A42E6D300F0ABFE002801D10020D0
:1054500000E02000F2BDC34988807047C149C88080
:105460007047B24800214171007970471CB5002097
:10547000AE494871AE4C002250212000FEF774F96D
:105480000021019180B20090230020220121C24816
:105490000068FEF708FA012016BD0020A3490200AB
:1054A0004A71CB4A88520220704710B586B09F4C93
:1054B000002060716288AB48818802A8FEF7B4F8CA
:1054C000B1200001201802781100491C0170B34C72
:1054D000B34800900523D2B202A92000FEF70AF9D2
:1054E0000021019180B200902300D7220121AA4817
:1054F0000068FEF7D8F9C349002000F0F5FD03204D
:1055000006B010BD8948002141710170BE4941803B
:105510000220704778090000C551000830B501002D
:1055200005200022814B14005C710C00E4B2042CB5
:1055300006D1A74959180C88102525430D8008E08D
:10554000C9B2052905D1A24959180C88202525433F
:105550000D809F4959180C7830252540302D06D1F3
:1055600010001870A84858800A80022008E00A78C5
:10557000D20601D5042003E00978890600D503206E
:10558000C0B230BD1CB504002078002802D000F065
:10559000CFF921E0601C00F041FE50280CD102221E
:1055A0002100093100ACA41C2000FBF745FE684631
:1055B0004088FFF750FF0FE0601C00F02FFE5328DB
:1055C0000AD10222210009316C462000FBF734FE8B
:1055D00068460088FFF742FF13BDF8B505000C7A56
:1055E000487A0006000C04430F002888002807D1E1
:1055F000CE4B3A00210089B22800FFF769FE22E075
:10560000210089B22800FFF7A4FE0600002E0AD16F
:105610002888642817D2C54B3A00210089B2280097
:10562000FFF756FE0FE041484088A4B2844201D102
:1056300000F04EF939003000FFF7CEFEBB4A3100D2
:105640002800FFF7D0FEF1BD10B50400FDF7ADFB5B
:10565000201810BD3EB50500287800282AD1BA4C84
:1056600001202070E87829790906090C084380B2E6
:10567000FFF7F1FE6878A9780906090C084380B2A3
:10568000FFF7ECFE00F01FFDB04A002312184B415B
:10569000200008300CC0083800F015FDAC4A01921B
:1056A000AC4A0092AB4A002312184B410021AA4891
:1056B00000F0CDFD37BD1CB50078002816D10020C4
:1056C000A14908702748C07800F0F7FDA34C0021DD
:1056D0002000FEF77DF80021019180B200902300A8
:1056E000B82201213B480068FEF7DDF813BD1CB568
:1056F00004000800FFF7A8FF6A4600A9891C401CA7
:10570000FDF7BBFF684600880849498888420BD1ED
:10571000684601882000FFF71CFE002804D0834A59
:1057200001002000FFF75FFE13BD0000783B002062
:10573000C88400201CB504000800FDF743FB6A463E
:1057400000A9891C801CFDF798FF6846018820008D
:10575000FFF7FFFD002804D0744A01002000FFF786
:1057600042FE13BDC084002038B504002000FFF7BE
:1057700011FE0500002D0DD0A1480178002905D0AB
:1057800029884088814201D100F0A2F82900200038
:10579000FFF7B6FD31BD000020850020805E0020AF
:1057A00004A0000880B5FDF713FB6A4600A9891C18
:1057B000FDF763FF68460088002808D100F083FCED
:1057C000624A002312184B41B2480CC0083801BD90
:1057D000120B00002085002080B5FDF7F9FA6A461B
:1057E00000A9891CFDF749FF68460088002808D1F8
:1057F00000F069FC554A002312184B41A5480CC023
:10580000083801BDC0D40100FFFF00003EB500F024
:1058100005FDC00003D40220BD49087002E001204C
:10582000BB490870BA4C01206070A94D0022532179
:105830002800FDF799FF0021019180B200902B0014
:1058400020220121A3480068FEF72DF800F03BFC60
:10585000E21C01923F4A00923E4A002312184B413B
:105860000021B74800F0F3FC37BDFEB50500B54C8C
:10587000290089B220000830FFF76BFD0700002FD8
:105880001ED0A44EBA1C39883000FDF760FF0021FD
:10589000019180B200903300B52201218D4800684B
:1058A000FEF701F82078002805D06088ADB2854267
:1058B00001D100F00DF8390020000830FFF720FD7D
:1058C000F7BD4F4901220A70488003204871704794
:1058D00000204B490870AC4A4A8048710220087188
:1058E0007047042046494871704780B505204449F7
:1058F0004871002000F00CFC01BD062040494871B1
:10590000704710B50400601C00F088FC502803D1DB
:1059100002203B49487107E0601C00F07FFC5328DF
:1059200002D101203649487110BD0000983A0000AC
:105930003348002141710171704780B5814840882A
:10594000FFF793FF01BD000090840020C0270900ED
:10595000C384002088130000995A0008A485002001
:1059600000B54078153812D00C3810D093380ED0CE
:10597000801E01280BD9C01E09D0801E012806D91F
:10598000173804D0801F012801D9C01F01D1012080
:1059900000E0002000BD10B502000C007B48D2B230
:1059A000212A24D0B42A1ED0B62A19D0B72A06D06C
:1059B000D22A11D0D82A06D0D92A07D01EE0210039
:1059C000FFF70BFE1AE0FFF78CFF17E02100FFF74F
:1059D0008EFEFFF78AFF11E02100FFF7ABFE0DE01E
:1059E000FFF78BFF0AE02100FFF7BEFE06E0200074
:1059F000FFF7C8FD2000FFF784FFFFE710BD0000A0
:105A0000783B002080B5C0B2B92812D0BB280CD09A
:105A1000D22802D0DF2804D00FE00800FFF7C2FE32
:105A20000BE00800FFF7D8FE07E00800FFF743FE91
:105A300003E00800FFF70EFEFFE701BD80B5344A22
:105A40005378002B06D1C0B2152802D10800FFF709
:105A5000DDFE0CE01378012B03D1C0B2FFF79BFFF2
:105A600005E01278022A02D1C0B2FFF7CBFF01BDD8
:105A700080B54748017800290AD10189002907D05B
:105A80000830FFF7BEFC002802D00088FFF719FF9E
:105A900001BD0000988400201CB53E4C20780028F1
:105AA00015D02000083003C800F07AFB00280ED083
:105AB000FDF7B9FF00210191002100910300BA22F6
:105AC000012135480068FDF7EEFE0020207013BD6F
:105AD000D08400202085002070B52F49086008215F
