:020000040800F2
:1000000000000220C94B0008094C0008B94C000848
:100010000D4C00080F4C0008114C000800000000B7
:10002000000000000000000000000000134C000869
:100030000000000000000000D14C0008DD080008AE
:100040001B4C00081D4C00081F4C0008214C0008E8
:10005000194C0008234C0008254C0008274C0008C8
:10006000294C00082B4C00082D4C00082F4C000890
:10007000314C0008334C0008354C0008374C000860
:10008000394C00083B4C00083D4C00083F4C000830
:10009000414C0008434C0008454C0008474C000800
:1000A000494C00084B4C00084D4C00084F4C0008D0
:1000B000514C0008534C0008554C0008574C0008A0
:1000C000594C00085B4C00085D4C00085F4C000870
:1000D000614C0008634C0008654C0008674C000840
:1000E000694C00086B4C00086D4C00086F4C000810
:1000F000714C0008734C0008754C0008774C0008E0
:10010000794C00087B4C00087D4C00087F4C0008AF
:10011000814C0008834C0008854C0008874C00087F
:10012000894C00088B4C00088D4C00088F4C00084F
:10013000914C0008934C0008954C0008974C00081F
:10014000994C00089B4C00089D4C00089F4C0008EF
:10015000A14C0008A34C0008A54C0008A74C0008BF
:10016000A94C0008AB4C0008AD4C0008AF4C00088F
:0C017000B14C0008B34C0008B54C00086E
:10017C0008B5002000F0EEF8074B1B680133064A67
:10018C001360054B1B68642B02D1034B00221A60D1
:0C019C00322002F017FDECE744100020B8
:1001A80008B5012000F0D8F8074B1B680133064A50
:1001B8001360054B1B68642B02D1034B00221A60A5
:0C01C800C82002F001FDECE74810002008
:1001D40000B585B002F0ACFF00F006FC00F058F862
:1001E400022302934FF4007301931F4B00931F4BA0
:1001F40064221F491F4802F005FC022302934FF4B6
:10020400007301931C4B00931C4B32221C491D4864
:1002140002F0F8FB1C4B1B78002B02D1A52000F048
:10022400E5FA03F06BFB03464CF2A852934202D06A
:10023400FD2000F0DBFA802072B680F3118862B6EC
:1002440000BF00BF114B1B78012B02D1E42000F04A
:10025400CDFA0E4B01221A7004F08CFD00231846CF
:1002640005B05DF804FB00BF900800207D01000884
:10027400704E0008E40E0020900A0020A901000836
:10028400784E0008400F0020B9100020BD10002057
:1002940082B02F4B1B682E4A23F0010313602D4BB1
:1002A4001B682C4A23F001031360294B1B68284A5E
:1002B40043F0010313600023019341E0264A019BAC
:1002C4001B01134404331B681968234A019B1B0157
:1002D40013441B685B00032202FA03F3DA431E484B
:1002E400019B1B01034404331B680A401A601A4A29
:1002F400019B1B01134404331B681968164A019BB4
:100304001B0113441B685B0001229A401248019BA5
:100314001B01034404331B680A431A600E4A019B01
:100324001B0113441A680C49019B1B010B440C3339
:100334001B68012101FA02F21A60019B0133019347
:10034400019B022BBAD900BF00BF02B0704700BFA7
:0C03540030380240103802400000002049
:1003600082B00190019B022B31DC1A4A019B1B01D8
:10037000134408331B681A681649019B1B010B4480
:100380001B6822FA03F303F00103002B0FD1114A7B
:10039000019B1B0113441A680E49019B1B010B446E
:1003A0000C331B68012101FA02F21A600FE0094ABE
:1003B000019B1B0113441A680649019B1B010B4456
:1003C0000C331B684FF4803101FA02F21A6000BF4F
:0803D00002B07047000000209C
:1003D800024B4FF47A721A6000BF70477010002009
:1003E800024B00221A6000BF704700BF7010002047
:1003F80082B01D4B1B680193019B23F03F030193BF
:10040800019B1B68194A1360184B1B68173B002295
:100418001A70164B1B68023B08221A70134B1B6894
:10042800033B12221A70114B1B68183B00221A70EA
:100438000E4B1B68163B00221A700C4B1B68013BC5
:1004480052221A70094B1B68153B1A46084B1A6052
:10045800064B1B68203B1A46064B1A60064B0022C7
:100468001A6000BF02B0704708ED00E05810002085
:0C04780068100020641000205C100020C0
:1004840000B583B000230193802072B680F31188F5
:1004940062B600BF00BF084B1B68002B04D1064B9B
:1004A40001221A600123019302F0F6FD019B184614
:0C04B40003B05DF804FB00BF74100020D2
:1004C000024B00221A6000BF704700BF741000206A
:1004D00000B583B01B4B1B68183B1B78DBB2002BAD
:1004E0002BD0194B1B68002B22D0184B1B68154AC8
:1004F0001268183A1278D2B2C2F10802134400937B
:10050000002301930BE0104B1B68009A12781046F1
:100510009847009B01330093019B01330193094BE2
:100520001B68183B1B78DBB21A46019B9342EADB3F
:10053000044B1B68183B00221A7000BF03B05DF823
:1005400004FB00BF581000204C1000206410002055
:1005500000B587B003468DF80730002305931F4B85
:100560001B680493049B9DF807201A70049B0133B9
:100570000493059B01330593194B1B68002B17D07F
:10058000059B112B11DC164B1B6898470390039BAE
:10059000002B0CDB039BDAB2049B1A70049B013323
:1005A0000493059B01330593EAE700BF00E000BF19
:1005B000802072B680F3118862B600BF00BFFFF7DB
:1005C0000BFF084B1B68163B059AD2B21A7002F05B
:1005D00065FD00BF07B05DF804FB00BF6810002098
:0805E000541000205810002007
:1005E80008B5064B1B68002B06D000BF034B1B68E1
:1005F80098470346002BF9DA00BF08BD54100020C5
:1006080008B5134B1B68163B1B78DBB2002B1CD1BB
:10061800FFF7E6FE0F4B1B68002B08D00E4B1B782C
:100628001846FFF791FF0B4B00221A600DE00B4BA9
:100638001B68002B09D0FFF721FF0346002B04D0CD
:10064800064B1B689847FFF737FF00BF08BD00BF80
:10065800581000205C100020730D0020501000205E
:1006680008B5204B1B78002B3AD01F4B1B68002B7A
:1006780004D1FFF7BDFE1C4B01221A601B4B1B68FF
:10068800173B1B78DBB2002B2AD0194B1B68002BB9
:100698000BD0174B1B68013B154A1360144B1B68A2
:1006A800002B02D1134B01221A60124B1B68002B3E
:1006B80012D00E4B1B68173B00221A700D4B0022FC
:1006C8001A600D4B00221A60FFF78AFF074B1B6860
:1006D800183B00221A7003E0FFF7F6FEFFF790FFC1
:1006E80000BF08BDBD100020601000205810002079
:0C06F800701000206C1000205C1000202E
:1007040000B583B003468DF80730244B1B78002BCB
:100714003AD0234B1B68002B04D1FFF76BFE204B10
:1007240001221A601F4B1B68173B1B78DBB2002B9E
:1007340023D01C4B1B68163B1B78DBB2002B14D157
:10074400FFF79EFE0346002B07D09DF8073018469E
:10075400FFF7FCFEFFF7B2FE1CE0134B01221A6008
:10076400124A9DF80730137014E00F4B01221A60EF
:100774000E4A9DF8073013700CE002F051FC03F0B0
:1007840065FE02F055FC05E002F04AFC03F05EFE53
:1007940002F04EFC00BF03B05DF804FBBD10002066
:1007A40060100020581000205C100020730D002001
:1007B40082B00190024A019B136000BF02B07047EF
:0407C4004C100020B5
:1007C80082B00190024A019B136000BF02B07047DB
:0407D800501000209D
:1007DC0082B00190024A019B136000BF02B07047C7
:0407EC005410002085
:1007F00000B583B003468DF8073002F013FC0A4BB6
:1008000000225A70002080F31188084A9DF80730B2
:10081000137000BF054B1B78DBB2002BFAD100BF71
:1008200000BF03B05DF804FB48000020BE100020AC
:1008300082B0034600918DF807309DF90730002BF8
:100840000ADB009BDAB20C499DF907301201D2B2E3
:100850000B4483F800230BE0009BDAB207499DF8B4
:10086000073003F00F03043B1201D2B20B441A7697
:1008700000BF02B0704700BF00E100E000ED00E003
:1008800000B583B00190019B013BB3F1807F01D3A0
:1008900001230FE0094A019B013B53600F214FF0F8
:1008A000FF30FFF7C5FF054B00229A60034B07227C
:1008B0001A600023184603B05DF804FB10E000E066
:0C08C000014B9B681846704710E000E0F8
:1008CC00024B5B6803F080631846704700ED00E054
:1008DC0008B5404B1B6803F00103002B04D13E4BC1
:1008EC001B6801333C4A13603C4B93F84530013391
:1008FC00DAB23A4B83F84520384B1B78DBB2013324
:10090C00DAB2364B1A7002F0D5FB344B1B6C002B51
:10091C0003D0324B1B6C1B68984702F017FAFFF799
:10092C009DFE2E4B1B78DBB2012B0CD12B4B5B6845
:10093C00002B08D0294B1B6C002B0CD0274B1B6CAD
:10094C009B68984707E0254B1B6C002B03D0234B6F
:10095C001B6C5B689847802072B680F3118862B676
:10096C0000BF00BF1D4B1B78DBB2012B16D11B4BFC
:10097C005B68002B12D0194B93F84530002B02D139
:10098C009820FFF72FFF154B93F84530013BDAB257
:10099C00124B83F8452004F030FA0FE00F4B93F81C
:1009AC004530002B02D19820FFF71CFF0B4B93F81E
:1009BC004530013BDAB2094B83F84520074B1B78D5
:1009CC00DBB2013BDAB2054B1A70002080F31188C0
:1009DC0000BF08BD001000E080100020480000207F
:1009EC0000B587B0304B5B78DBB203F0F003002B23
:1009FC0002D09920FFF7F6FE802072B680F31188A2
:100A0C0062B600BF00BF284B5B78DBB20133DAB2B1
:100A1C00254B5A7003F07AFF244B1B68244AA2FB27
:100A2C0003239B091846FFF725FF0E214FF0FF30DB
:100A3C00FFF7F8FE1D4B1B6801934FF47A7302937A
:100A4C0000238DF80C301B4B04931B4B059301AB0F
:100A5C00184601F0FFFE01F041FE1848FFF7A4FE16
:100A6C001748FFF7ABFE1748FFF7B2FE0E4B5B784B
:100A7C00DBB203F0F003002B02D09920FFF7B2FE9B
:100A8C00094B5B78DBB2013BDAB2074B5A70064B71
:100A9C005B78DBB2002B02D1002080F3118800BF01
:100AAC0007B05DF804FB00BF4800002044000020A4
:100ABC00D34D6210C1080008CD080008014600089B
:080ACC00254700087D440008E5
:100AD40082B00190344B1B68002B0DDA324B1B683B
:100AE400314A43F000431360019B18331A68019B99
:100AF400183302321A6054E02C4B1B682C4A1362E0
:100B04002C4B1B78DAB22A4B83F824202A4B1B780F
:100B1400DBB21A46264B9A62284B1B68244AD362DE
:100B2400274B1B889AB2224B1A861F4B1B68204AFC
:100B34005363244B1B681E4A9363234B1B681C4A54
:100B4400D363224B00221A6000BF204B1B68002B8A
:100B5400FBD0019B1B68164A1360019B5B68144A17
:100B64005360019B9B68124A9360019BDB68104AA7
:100B7400D360019B1B690E4A1361019B5B690C4A9C
:100B84005361019B9B690A4A9361019BDB69084A93
:100B9400D3610E4B00221A6000BF0C4B1B68002B64
:100BA400FBD002B0704700BF2CED00E024ED00E064
:100BB4009C0F002028ED00E029ED00E038ED00E076
:100BC4002AED00E030ED00E03CED00E0781000207C
:100BD40000B583B01F4B0193019B03221A61019B53
:100BE40003225A61019B1C4A9A61019B1B4ADA61E8
:100BF400019B4FF480621A62019B00229A62019B5E
:100C040000225A62019B0022DA62019B124A1A6690
:100C1400019B134A5A66019B10229A66019B00228B
:100C24001A67019B0022DA66019B00225A67019B26
:100C340007330C49184604F036FB019B0A49184651
:100C440004F031FB019B20229A7100BF03B05DF8D0
:100C540004FB00BF3C0E00205C4F00089000002005
:0C0C640024100020684F00086C4F0008AE
:100C700000B58BB00390029101923C4B1B78002B86
:100C800001D1FFF7A7FF039A13465B001344DB0073
:100C90006033364A13440693029B0793069B1B69F5
:100CA0000893069BDB68059300230993089A059B2C
:100CB0009A422AD9069B9A68089BD31A0493049AED
:100CC000019B934228BF13460493069B5A68089BD6
:100CD0001344049A1946079804F0C3F9099A049B2F
:100CE00013440993079A049B13440793019A049BA6
:100CF000D31A0193089A049B13440893069B9B689C
:100D0000089A9A4201D100230893059A089BD31AA6
:100D10000493049A019B934228BF13460493049BB7
:100D2000002B18D0069B5A68089B1344049A194656
:100D3000079804F096F9099A049B13440993079ABB
:100D4000049B13440793019A049BD31A0193089AB6
:100D5000049B13440893099B002B02D0069B089A1E
:100D60001A61099B18460BB05DF804FB3C0E00208D
:100D700000B58BB0039002910192029B0993039BF3
:100D80005A1C13465B001344DB00404A134408938B
:100D9000089B1B690793089BDB680693079A069BD1
:100DA0009A4254D8089B9A68069BD31A013B059334
:100DB000059A019B9A420FD3089B5A68069B1344DD
:100DC000019A0999184604F04CF9069A019B1A44B5
:100DD000089BDA60012354E0059A079B13440593AE
:100DE000059A019B9A424BD3089B9A68069BD31A9B
:100DF0000493049A019B9A420ED9089B5A68069B59
:100E00001344019A0999184604F02BF9069A019B9C
:100E10001A44089BDA6018E0089B5A68069B134442
:100E2000049A0999184604F01CF9089B5868099A15
:100E3000049BD118019A049BD31A1A4604F011F9A5
:100E4000019A049BD21A089BDA60012319E0079AE1
:100E5000069BD31A013B0593059A019B9A420FD337
:100E6000089B5A68069B1344019A0999184604F096
:100E7000F8F8069A019B1A44089BDA60012300E007
:100E8000002318460BB05DF804FB00BF3C0E0020A9
:100E900000B587B00390029101920093304B1B780C
:100EA000002B01D1FFF796FE2D4B1B691A46039BC1
:100EB00093424CD2EFF311834FF0200181F311885C
:100EC0000493039B002B32D02549039B5A1C1346E5
:100ED0005B001344DB000B44029A1A602049039B19
:100EE0005A1C13465B001344DB000B440433019A85
:100EF0001A601B49039A13465B001344DB000B4442
:100F00002033009A1A601649039A13465B00134473
:100F1000DB000B44283300221A601149039A134660
:100F20005B001344DB000B44243300221A600C499D
:100F3000039A13465B001344DB000B442C33089ADE
:100F40001A60049B83F311880023059302E04FF09D
:100F5000FF330593059B184607B05DF804FB00BFFF
:040F60003C0E002023
:100F640000B587B003900291019200932F4B1B7838
:100F7400002B01D1FFF72CFE2C4B5B691A46039B17
:100F840093424BD2EFF311834FF0200181F3118888
:100F94000493039B002B31D02449039A13465B002E
:100FA4001344DB000B446033029A1A601F49039A0E
:100FB40013465B001344DB000B446433019A1A604C
:100FC4001A49039A13465B001344DB000B4468334D
:100FD400009A1A601549039A13465B001344DB0018
:100FE4000B44703300221A601049039A13465B00C5
:100FF4001344DB000B446C3300221A600B49039A40
:1010040013465B001344DB000B447433089A1A60E4
:10101400049B83F311880023059302E04FF0FF3310
:101024000593059B184607B05DF804FB3C0E0020B1
:1010340000B583B00DF10303012219460120FFF727
:1010440015FE03460193019B002B50DD9DF80330F0
:10105400072B15DC002B3DDD013B062B3AD801A202
:1010640052F823F08B100008911000089710000824
:101074009D100008A3100008A9100008AF10000874
:10108400802B15D026E000F029FC35E000F0E2FCCE
:1010940032E000F0B5FE2FE000F07EFE2CE000F020
:1010A400FDFC29E001F0D4FA26E001F0B5FA23E0D2
:1010B4000DF10303012219460120FFF7D7FD034672
:1010C4000193019B002B14DD9DF80330184601F0B9
:1010D40021FA0EE09DF803305BB2002B0BDA0DF120
:1010E4000303012219460120FFF7C0FD03E000BFFE
:1010F40002E000BF00E000BF00BF03B05DF804FBE6
:1011040000B58DB001238DF8043001AB0133079392
:10111400079B0B93304B5B690A930BE00A9BDAB293
:101124000B9B591C0B9162F07F02D2B21A700A9B7E
:10113400DB090A930A9B7F2BF0D80B9B5A1C0B925A
:101144000A9AD2B21A700B9B0793244B1B6806931E
:10115400214BDB68069AD31A0593079B0993059BD9
:1011640008930BE0089BDAB2099B591C099162F0C1
:101174007F02D2B21A70089BDB090893089B7F2B6D
:10118400F0D8099B5A1C0992089AD2B21A70099B8A
:10119400079301AB079AD31A1A4601AB19460120EB
:1011A400FFF7E4FD03460493049B002B09D00A4A8D
:1011B400069BD360084B1B78013BDAB2064B1A70CE
:1011C40004E0054B5B690133034A5361049B1846F1
:1011D4000DB05DF804FB00BFDC0F0020041000E03C
:1011E40000B58BB0039002910192634B1B78012BE5
:1011F40010D0614B1B78002B00F0A1805E4B1B7854
:10120400022B09D1FFF77CFF5B4B1B78012B40F0CD
:10121400988001E000BF00E000BF019B1F2B09D8AC
:10122400554BDA69019B22FA03F303F00103002B07
:1012340040F08980019B172B07D8039B013B039344
:10124400019BDAB2039B1A703DE0029A039BD31A06
:101254000793079B7F2B12D9079BDA09039B013B5A
:101264000393D2B2039B1A70079BDBB2039A013A31
:10127400039263F07F03DAB2039B1A7006E0039BC8
:10128400013B0393079BDAB2039B1A70019B7F2BEC
:1012940012D9019BDA09039B013B0393D2B2039B4E
:1012A4001A70019BDBB2039A013A039263F07F0345
:1012B400DAB2039B1A7006E0039B013B0393019B84
:1012C400DAB2039B1A702D4B1B6806932A4BDB681A
:1012D400069AD31A0593029B0993059B08930BE086
:1012E400089BDAB2099B591C099162F07F02D2B2C1
:1012F4001A70089BDB090893089B7F2BF0D8099B85
:101304005A1C0992089AD2B21A70099B0293029A43
:10131400039BD31A1A4603990120FFF727FD0346BE
:101324000493049B002B03D0134A069BD3600BE069
:10133400114B1B780133DAB20F4B1A7004E000BF73
:1013440002E000BF00E000BF0D4BD3F884200C4B3B
:10135400D3F888309A420BD0074B9B78002B07D1E7
:10136400054B01229A70FFF763FE034B00229A702B
:1013740000BF0BB05DF804FBDC0F0020041000E09C
:041384003C0E0020FB
:1013880000B587B00590049103920293002300935F
:101398004FF48063134A14490120FFF775FD0023B9
:1013A80000930823114A10490120FFF7D7FD104B7D
:1013B8004FF080521A610F4B1B680D4AD3600C4ADC
:1013C800039B13620A4A059B5360094A049B936076
:1013D800074A029B5362064B00221A7000BF07B0EF
:1013E8005DF804FB90040020804E000834100020B3
:0813F800DC0F0020041000E0EE
:1014000082B00190024A019B136100BF02B0704795
:04141000DC0F0020CD
:1014140000B585B00190EFF311834FF0200181F303
:1014240011880393074803F038FD0290019A02994A
:101434000298FFF7D5FE039B83F3118800BF05B024
:081444005DF804FB900C002090
:10144C0000B589B001900091EFF311834FF02001AA
:10145C0081F311880593174803F01BFD0490049B3E
:10146C000393039B0793009B06930BE0069BDAB256
:10147C00079B591C079162F07F02D2B21A70069B2F
:10148C00DB090693069B7F2BF0D8079B5A1C07920F
:10149C00069AD2B21A70079B0393019A0399049887
:1014AC00FFF79AFE059B83F3118800BF09B05DF826
:0814BC0004FB00BF900C0020AE
:1014C40000B58DB0039002910192EFF311834FF0B8
:1014D400200181F311880793244803F0DEFC069071
:1014E400069B0593059B0B93029B0A930BE00A9BB7
:1014F400DAB20B9B591C0B9162F07F02D2B21A70C4
:101504000A9BDB090A930A9B7F2BF0D80B9B5A1C7E
:101514000B920A9AD2B21A700B9B0593059B0993FE
:10152400019B08930BE0089BDAB2099B591C0991B3
:1015340062F07F02D2B21A70089BDB090893089B01
:101544007F2BF0D8099B5A1C0992089AD2B21A70C0
:10155400099B0593039A05990698FFF741FE079B9B
:1015640083F3118800BF0DB05DF804FB900C0020DC
:1015740000B58FB00390029101920093EFF31183B1
:101584004FF0200181F311880793334803F085FC61
:101594000690069B0593059B0D93029B0C930BE011
:1015A4000C9BDAB20D9B591C0D9162F07F02D2B2F2
:1015B4001A700C9BDB090C930C9B7F2BF0D80D9BB2
:1015C4005A1C0D920C9AD2B21A700D9B0593059B6E
:1015D4000B93019B0A930BE00A9BDAB20B9B591CF9
:1015E4000B9162F07F02D2B21A700A9BDB090A9354
:1015F4000A9B7F2BF0D80B9B5A1C0B920A9AD2B2EF
:101604001A700B9B0593059B0993009B08930BE0B1
:10161400089BDAB2099B591C099162F07F02D2B28D
:101624001A70089BDB090893089B7F2BF0D8099B51
:101634005A1C0992089AD2B21A70099B0593039A0C
:1016440005990698FFF7CCFD079B83F3118800BF2B
:0C1654000FB05DF804FB00BF900C0020FC
:1016600000B591B00390029101920093EFF31183C2
:101670004FF0200181F311880793414803F00FFCDC
:101680000690069B0593059B0F93029B0E930BE020
:101690000E9BDAB20F9B591C0F9162F07F02D2B2FF
:1016A0001A700E9BDB090E930E9B7F2BF0D80F9BBD
:1016B0005A1C0F920E9AD2B21A700F9B0593059B7B
:1016C0000D93019B0C930BE00C9BDAB20D9B591C04
:1016D0000D9162F07F02D2B21A700C9BDB090C9361
:1016E0000C9B7F2BF0D80D9B5A1C0D920C9AD2B2FA
:1016F0001A700D9B0593059B0B93009B0A930BE0BF
:101700000A9BDAB20B9B591C0B9162F07F02D2B29A
:101710001A700A9BDB090A930A9B7F2BF0D80B9B5C
:101720005A1C0B920A9AD2B21A700B9B0593059B16
:101730000993129B08930BE0089BDAB2099B591C92
:10174000099162F07F02D2B21A70089BDB090893FC
:10175000089B7F2BF0D8099B5A1C0992089AD2B299
:101760001A70099B0593039A05990698FFF73AFDAD
:10177000079B83F3118800BF11B05DF804FB00BF25
:04178000900C0020A9
:1017840000B593B00390029101920093EFF311839B
:101794004FF0200181F3118807934F4803F07DFB3C
:1017A4000690069B0593059B1193029B10930BE0F7
:1017B400109BDAB2119B591C119162F07F02D2B2D4
:1017C4001A70109BDB091093109B7F2BF0D8119B90
:1017D4005A1C1192109AD2B21A70119B0593059B50
:1017E4000F93019B0E930BE00E9BDAB20F9B591CD7
:1017F4000F9162F07F02D2B21A700E9BDB090E9336
:101804000E9B7F2BF0D80F9B5A1C0F920E9AD2B2CC
:101814001A700F9B0593059B0D93009B0C930BE093
:101824000C9BDAB20D9B591C0D9162F07F02D2B26F
:101834001A700C9BDB090C930C9B7F2BF0D80D9B2F
:101844005A1C0D920C9AD2B21A700D9B0593059BEB
:101854000B93149B0A930BE00A9BDAB20B9B591C63
:101864000B9162F07F02D2B21A700A9BDB090A93D1
:101874000A9B7F2BF0D80B9B5A1C0B920A9AD2B26C
:101884001A700B9B0593059B0993159B08930BE01A
:10189400089BDAB2099B591C099162F07F02D2B20B
:1018A4001A70089BDB090893089B7F2BF0D8099BCF
:1018B4005A1C0992089AD2B21A70099B0593039A8A
:1018C40005990698FFF78CFC079B83F3118800BFEA
:0C18D40013B05DF804FB00BF900C002076
:1018E00000B58DB0594B1B78002B40F0AA80574BA8
:1018F00001221A70EFF311834FF0200181F3118858
:1019000003930A2252490120FFF732FA039B83F323
:1019100011880A20FFF77EFDEFF311834FF02001BD
:1019200081F3118802934B4803F0B9FA0190019BAF
:101930000093009B0B93454B5B680A930BE00A9B5B
:10194000DAB20B9B591C0B9162F07F02D2B21A7073
:101950000A9BDB090A930A9B7F2BF0D80B9B5A1C2E
:101960000B920A9AD2B21A700B9B0093009B0993B8
:10197000364B9B6808930BE0089BDAB2099B591C15
:10198000099162F07F02D2B21A70089BDB090893BA
:10199000089B7F2BF0D8099B5A1C0992089AD2B257
:1019A0001A70099B0093009B0793284B1B690693B1
:1019B0000BE0069BDAB2079B591C079162F07F028D
:1019C000D2B21A70069BDB090693069B7F2BF0D8D8
:1019D000079B5A1C0792069AD2B21A70079B009373
:1019E000009B0593022304930BE0049BDAB2059B52
:1019F000591C059162F07F02D2B21A70049BDB0978
:101A00000493049B7F2BF0D8059B5A1C0592049AE3
:101A1000D2B21A70059B0093182200990198FFF723
:101A2000E1FB029B83F31188084B5B6A002B02D019
:101A3000064B5B6A984700F0E5F900F0AFF900F05B
:101A400009FE00BF0DB05DF804FB00BFDC0F0020F5
:081A5000884E0008900C0020F4
:101A580000B583B0EFF311834FF0200181F31188B3
:101A680001930B4803F017FA00900A4B1B78002BE0
:101A780007D00B2200990098FFF7B0FB054B002216
:101A88001A70019B83F3118800BF03B05DF804FB53
:081A9800900C0020DC0F00207F
:101AA00000B58DB0EFF311834FF0200181F3118861
:101AB0000393464803F0F3F90290029B0193019BC4
:101AC0000B93434B5B680A930BE00A9BDAB20B9BC8
:101AD000591C0B9162F07F02D2B21A700A9BDB098B
:101AE0000A930A9B7F2BF0D80B9B5A1C0B920A9AE5
:101AF000D2B21A700B9B0193019B0993344B9B68E4
:101B000008930BE0089BDAB2099B591C099162F01B
:101B10007F02D2B21A70089BDB090893089B7F2BC7
:101B2000F0D8099B5A1C0992089AD2B21A70099BE4
:101B30000193019B0793264B1B6906930BE0069BC1
:101B4000DAB2079B591C079162F07F02D2B21A7079
:101B5000069BDB090693069B7F2BF0D8079B5A1C3C
:101B60000792069AD2B21A70079B0193019B0593C4
:101B7000022304930BE0049BDAB2059B591C0591E8
:101B800062F07F02D2B21A70049BDB090493049BBB
:101B90007F2BF0D8059B5A1C0592049AD2B21A707A
:101BA000059B0193182201990298FFF71BFB039BE9
:101BB00083F31188064B5B6A002B02D0044B5B6AEF
:101BC000984700BF0DB05DF804FB00BF900C0020EB
:041BD000DC0F002006
:101BD40000B593B00190EFF311834FF0200181F32E
:101BE400118805936A4803F058F90490049B039301
:101BF400039B1193019B1A68664B1B69D31A9B08BC
:101C040010930BE0109BDAB2119B591C119162F0F6
:101C14007F02D2B21A70109BDB091093109B7F2BAA
:101C2400F0D8119B5A1C1192109AD2B21A70119BBF
:101C34000393039B0F93019B9B680E930BE00E9BF6
:101C4400DAB20F9B591C0F9162F07F02D2B21A7064
:101C54000E9BDB090E930E9B7F2BF0D80F9B5A1C17
:101C64000F920E9AD2B21A700F9B0393019B5B687A
:101C740020221946039803F05CFA03900922039981
:101C84000498FFF7ADFA049B0393039B0D93019B08
:101C94001A68404B1B69D31A9B080C930BE00C9BEE
:101CA400DAB20D9B591C0D9162F07F02D2B21A7008
:101CB4000C9BDB090C930C9B7F2BF0D80D9B5A1CBF
:101CC4000D920C9AD2B21A700D9B0393039B0B9343
:101CD400019BDB680A930BE00A9BDAB20B9B591C4D
:101CE4000B9162F07F02D2B21A700A9BDB090A934D
:101CF4000A9B7F2BF0D80B9B5A1C0B920A9AD2B2E8
:101D04001A700B9B0393039B0993019B1B69089314
:101D14000BE0089BDAB2099B591C099162F07F021F
:101D2400D2B21A70089BDB090893089B7F2BF0D86A
:101D3400099B5A1C0992089AD2B21A70099B039300
:101D4400039B0793002306930BE0069BDAB2079BE1
:101D5400591C079162F07F02D2B21A70069BDB090C
:101D64000693069B7F2BF0D8079B5A1C0792069A72
:101D7400D2B21A70079B0393152203990498FFF7B4
:101D84002FFA059B83F3118800BF13B05DF804FBA1
:081D9400900C0020DC0F002080
:101D9C0008B5074B1B6A002B08D0054B1B6A5B6808
:101DAC00002B03D0024B1B6A5B68984700BF08BD31
:041DBC00DC0F002018
:101DC00000B587B00190EFF311834FF0200181F34C
:101DD000118805930A4803F062F804908022019963
:101DE000049803F0A8F903900E2203990498FFF7D2
:101DF000F9F9059B83F3118800BF07B05DF804FB78
:041E0000900C002022
:101E040010B582B0144B1B6A002B1AD0124B1B6AFC
:101E14001B68002B15D0104B1B6A1B689847CDE933
:101E24000001009CDDE900014FF000024FF00003C7
:101E34000A00002313461A4621460D20FFF740FBF3
:101E440006E0064B1B6819460C20FFF7FDFA00BF9D
:101E540000BF02B010BD00BFDC0F0020041000E082
:101E640000B587B0EFF311834FF0200181F311889F
:101E74000393194803F011F80290029B0193174B46
:101E84001B68C3F308030093019B0593009B049311
:101E94000BE0049BDAB2059B591C059162F07F02AA
:101EA400D2B21A70049BDB090493049B7F2BF0D8F5
:101EB400059B5A1C0592049AD2B21A70059B019391
:101EC400022201990298FFF78BF9039B83F311888F
:101ED40000BF07B05DF804FB900C002004ED00E0A7
:101EE40000B583B0EFF311834FF0200181F3118823
:101EF4000193084802F0D1FF009003220099009852
:101F0400FFF76EF9019B83F3118800BF03B05DF8FE
:081F140004FB00BF900C00204B
:101F1C0000B583B0EFF311834FF0200181F31188EA
:101F2C000193084802F0B5FF009012220099009826
:101F3C00FFF752F9019B83F3118800BF03B05DF8E2
:081F4C0004FB00BF900C002013
:101F540000B589B00190EFF311834FF0200181F3B4
:101F640011880593184802F098FF0490049B03938A
:101F7400039B0793154B1B69019AD31A9B0806937D
:101F84000BE0069BDAB2079B591C079162F07F02B3
:101F9400D2B21A70069BDB090693069B7F2BF0D8FE
:101FA400079B5A1C0792069AD2B21A70079B039396
:101FB400132203990498FFF713F9059B83F31188FF
:101FC40000BF09B05DF804FB900C0020DC0F00207A
:101FD40000B583B0EFF311834FF0200181F3118832
:101FE4000193084802F059FF0090142200990098C8
:101FF400FFF7F6F8019B83F3118800BF03B05DF887
:0820040004FB00BF900C00205A
:10200C0000B589B00190EFF311834FF0200181F3FB
:10201C0011880593164802F03CFF0490049B03932F
:10202C00039B0793019B06930BE0069BDAB2079B7D
:10203C00591C079162F07F02D2B21A70069BDB0921
:10204C000693069B7F2BF0D8079B5A1C0792069A87
:10205C00D2B21A70079B03931C2203990498FFF7C2
:10206C00BBF8059B83F3118800BF09B05DF804FB36
:04207C00900C0020A4
:1020800000B58BB001900091EFF311834FF0200168
:1020900081F311880593254802F001FF0490049B09
:1020A0000393039B0993019B08930BE0089BDAB20F
:1020B000099B591C099162F07F02D2B21A70089BE9
:1020C000DB090893089B7F2BF0D8099B5A1C0992C7
:1020D000089AD2B21A70099B0393039B0793009B43
:1020E00006930BE0069BDAB2079B591C079162F03E
:1020F0007F02D2B21A70069BDB090693069B7F2BE8
:10210000F0D8079B5A1C0792069AD2B21A70079B06
:1021100003931C2203990498FFF764F8059B83F34B
:10212000118800BF0BB05DF804FB00BF900C0020CD
:1021300000B583B0EFF311834FF0200181F31188D4
:102140000193084802F0ABFE00901122009900981C
:10215000FFF748F8019B83F3118800BF03B05DF8D7
:0821600004FB00BF900C0020FD
:1021680000B589B00190EFF311834FF0200181F39E
:1021780011880593194802F08EFE0490049B03937E
:10218800174B1B69019AD31A9B080193039B07936A
:10219800019B06930BE0069BDAB2079B591C07913B
:1021A80062F07F02D2B21A70069BDB090693069B87
:1021B8007F2BF0D8079B5A1C0792069AD2B21A7046
:1021C800079B0393082203990498FFF707F8059BD8
:1021D80083F3118800BF09B05DF804FB900C002060
:0421E800DC0F0020E8
:1021EC0000B589B00190EFF311834FF0200181F31A
:1021FC0011880593194802F04CFE0490049B03933C
:10220C00174B1B69019AD31A9B080193039B0793E5
:10221C00019B06930BE0069BDAB2079B591C0791B6
:10222C0062F07F02D2B21A70069BDB090693069B02
:10223C007F2BF0D8079B5A1C0792069AD2B21A70C1
:10224C00079B03931D2203990498FEF7C5FF059B7A
:10225C0083F3118800BF09B05DF804FB900C0020DB
:04226C00DC0F002063
:1022700000B589B00190EFF311834FF0200181F395
:1022800011880593194802F00AFE0490049B0393F9
:10229000174B1B69019AD31A9B080193039B079361
:1022A000019B06930BE0069BDAB2079B591C079132
:1022B00062F07F02D2B21A70069BDB090693069B7E
:1022C0007F2BF0D8079B5A1C0792069AD2B21A703D
:1022D000079B0393042203990498FEF783FF059B51
:1022E00083F3118800BF09B05DF804FB900C002057
:0422F000DC0F0020DF
:1022F40000B583B0EFF311834FF0200181F311880F
:102304000193084802F0C9FD009005220099009845
:10231400FEF766FF019B83F3118800BF03B05DF8ED
:0823240004FB00BF900C002037
:10232C0000B589B00190EFF311834FF0200181F3D8
:10233C0011880593194802F0ACFD0490049B03939B
:10234C00174B1B69019AD31A9B080193039B0793A4
:10235C00019B06930BE0069BDAB2079B591C079175
:10236C0062F07F02D2B21A70069BDB090693069BC1
:10237C007F2BF0D8079B5A1C0792069AD2B21A7080
:10238C00079B0393062203990498FEF725FF059BF0
:10239C0083F3118800BF09B05DF804FB900C00209A
:0423AC00DC0F002022
:1023B00000B58BB001900091EFF311834FF0200135
:1023C00081F311880593284802F069FD0490049B6D
:1023D0000393264B1B69019AD31A9B080193039B15
:1023E0000993019B08930BE0089BDAB2099B591CE7
:1023F000099162F07F02D2B21A70089BDB09089340
:10240000089B7F2BF0D8099B5A1C0992089AD2B2DC
:102410001A70099B0393039B0793009B06930BE0A1
:10242000069BDAB2079B591C079162F07F02D2B279
:102430001A70069BDB090693069B7F2BF0D8079B3F
:102440005A1C0792069AD2B21A70079B039307226E
:1024500003990498FEF7C6FE059B83F3118800BF1D
:102460000BB05DF804FB00BF900C0020DC0F0020D7
:1024700000B589B001900091EFF311834FF0200176
:1024800081F3118805931C4802F009FD0490049B18
:102490000393039B0793194B1B69019AD31A9B085B
:1024A00006930BE0069BDAB2079B591C079162F07A
:1024B0007F02D2B21A70069BDB090693069B7F2B24
:1024C000F0D8079B5A1C0792069AD2B21A70079B43
:1024D000039380220099039802F02DFE03901922A5
:1024E00003990498FEF77EFE059B83F3118800BFD5
:1024F00009B05DF804FB00BF900C0020DC0F002049
:1025000082B00190034B1B69019AD31A9B081846AD
:0825100002B07047DC0F00204F
:1025180000B58DB003468DF807303C4B1B68002B87
:102528006FD03A4B1B680B9300230A9308E00B9B70
:102538001B690B930B9B002B08D00A9B01330A9352
:102548009DF807300A9A9A42F1D300E000BF0B9B2E
:10255800002B56D0EFF311834FF0200181F311883F
:1025680005932B4802F097FC0490049B0393039B6C
:1025780009939DF8073008930BE0089BDAB2099B92
:10258800591C099162F07F02D2B21A70089BDB09CC
:102598000893089B7F2BF0D8099B5A1C0992089A2C
:1025A800D2B21A70099B0393039B07930B9B9B68FA
:1025B80006930BE0069BDAB2079B591C079162F061
:1025C8007F02D2B21A70069BDB090693069B7F2B0B
:1025D800F0D8079B5A1C0792069AD2B21A70079B2A
:1025E80003930B9B1B6880221946039802F09FFDFA
:1025F8000390162203990498FEF7F0FD059B83F3D8
:10260800118800BF0DB05DF804FB00BF7C100020EE
:04261800900C002002
:10261C0000B583B00B4B1B68002B0FD0094B1B680C
:10262C000193019BDB68002B02D0019BDB68984770
:10263C00019B1B690193019B002BF2D100BF03B0DE
:08264C005DF804FB7C10002086
:1026540000B587B0EFF311834FF0200181F31188A7
:102664000393174802F019FC0290029B0193019B0B
:102674000593144B1B7804930BE0049BDAB2059B7F
:10268400591C059162F07F02D2B21A70049BDB09D7
:102694000493049B7F2BF0D8059B5A1C0592049A43
:1026A400D2B21A70059B01931B2201990298FEF77E
:1026B40097FD039B83F3118800BF07B05DF804FB0B
:0826C400900C0020B81000206A
:1026CC0008B50448FFF776FB0348FFF773FB00BF20
:0C26DC0008BD00BFAC4E0008D84E00083E
:1026E80008B5114B1B6803F00073002B0BD10E4B80
:1026F8001B6803F00103002B05D10B4B1B680A4A2A
:1027080043F001031360094B1868084B1968084B1C
:10271800084AFEF735FE4FF08050FEF76DFE06487A
:1027280000F090F800BF08BD001000E04400002051
:0C273800CD2600085C4B0008004B000898
:1027440000B583B000F06CFC124BDB68019305E02C
:10275400019802F0C6FB019B1B680193019B002BAF
:10276400F6D10D4B1B6800930BE0009B5B681A4687
:10277400009B9B6819461046FFF778FE009B1B6878
:102784000093009B002BF0D100F052FC00BF03B07B
:0C2794005DF804FB4800002098100020B5
:0827A0000048704700FD012014
:1027A800014B0248C01A704700FD012000000220BA
:0427B80068467047B8
:1027BC000F2806DD064BC35C802BB4BF0220012022
:1027CC0070470E2802D0034BC35CF5E7042070471A
:0827DC00F0E300E014ED00E061
:1027E40010B5EFF3108172B6134A136843F47F03F4
:1027F400136081F310880023EFF314839B0717D42D
:102804000E4B1B6813F4700F02D1A720FDF7EEFFE7
:102814000B480C4A4FF000744FF040410460002311
:102824001160EFF3148323F0040383F3148810BDC1
:10283400A720FDF7DBFFE3E720ED00E088ED00E0F3
:082844003CEF00E034EF00E07E
:10284C0010B5044600F056FC014B1C6410BD00BFD3
:04285C004800002010
:1028600070B5254D2B78044623B1244B93F84530A1
:10287000002B36D002F0F2FA01282ED0204B1B7824
:1028800023B1012B25D12B78012B1ED100F038FC70
:102890000FCC1C4E35460FC523682B60B0FBF1F3FF
:1028A000736110B30246184900E01A46B1FBF2F317
:1028B00002FB13131146002BF7D1134BB3FBF2F3BA
:1028C000B0FBF2F2C6E9063270BD02F0C7FA012889
:1028D000DCD0E320FDF78CFFD8E7A020FDF788FFD0
:1028E000CCE7A120FDF784FFC4E70123064AB0FB33
:1028F000F2F2C6E9063270BDBA100020480000208E
:0C290000BD1000200410002040420F0019
:10290C002DE9F843224CE368002B3DD02369002BC2
:10291C0036D0802072B680F3118862B600BF00BF3B
:10292C001C4DE368D5E90A679847236980469847A8
:10293C0028B1E3689847013647F1000780466B7869
:10294C0013F0F00F4FF0000916D16B7813B900207B
:10295C0080F31188227A636900211AB9B3EB080855
:10296C0061EB0909A6FB034503FB075514EB0800B3
:10297C0045EB0901BDE8F8839920FDF733FFE4E747
:10298C00EC20FDF72FFFC4E7EB20FDF72BFFBDE795
:08299C00041000204800002097
:1029A40070B5164E336C13B19B6AD620984702F06B
:1029B40053FA01281AD000F0A1FBFFF7A5FF104A33
:1029C400D2E90632A3FB004503FB01552046294604
:1029D400002302F0DDFA336C04460D461BB10146B8
:1029E400DB6CD62098472046294670BD96F84530C2
:1029F400002BE0D1A420FDF7F9FEDCE7480000201D
:042A0400041000209A
:102A08002DE9F04F684D85B02E780E9C0394DDE9D2
:102A18000F7B05468A4690469946002E00F0B08006
:102A2800624B634E1B7823B196F84530002B00F0BB
:102A3800B78002F00FFA012800F0AE8000F05CFBCE
:102A4800802072B680F3118862B600BF00BFF368B9
:102A58003BB1039C9D4200F08B801B68002BF9D191
:102A68000394737813F0F00F40F09280737813B9E1
:102A7800002080F31188336C53B1D3E90E32284615
:102A88001C46904700970146039B42462E20A047CC
:102A98005C220021284602F009FB464BC5F8148049
:102AA8001A78C5F818800F2385F849B02A7485F874
:102AB8005830BAF1000F01D0C5F828A0572F63D9B4
:102AC800039B3A46C5E90B731846CD2102F0EEFA8E
:102AD800336C43B11B6928469847336C1BB1DB68DC
:102AE80028469847336C039A33493A4422F007043E
:102AF80009F10200002244F8080C44F8582C4FF061
:102B080080706FF0020244F8140C44F8181C2B482B
:102B18002B4944F8342C2B4A44F82C0C44F8281C34
:102B28000330033144F8242C033244F8540C44F89D
:102B3800501C0330033144F84C2C033244F8480C41
:102B480044F8441C44F8402C03300331A4F15802E3
:102B580044F80C9C44E90F016A6013B19B6C2E2069
:102B680098472846002105B0BDE8F04F00F098BB13
:102B7800AA20FDF739FE2B68002B7FF46BAF6FE7B7
:102B8800A520FDF731FE4BE77820FDF72DFE97E7EE
:102B98009920FDF729FE69E7A020FDF725FE4DE7FE
:102BA800A120FDF721FE44E7B9100020BA1000204B
:102BB80048000020BC100020654D00080100CCCC66
:082BC8000200CCCC0300CCCCD0
:102BD00070B5234C236C06461BB10146DB6A2A20E4
:102BE0009847204B1B781BB194F84530002B31D00F
:102BF00002F034F9012829D000F082FA1A4B256A34
:102C00001B783544A3B9637853B9236A5B1B002B47
:102C1000FBDB236C13B39B6C2A20BDE87040184784
:102C20009A20FDF7E5FD236A5B1B002BEDDBF0E747
:102C3000802072B680F3118862B600BF00BFA3681F
:102C40000422DD601A7400F0CFFDE2E7A020FDF75A
:102C5000CFFDD1E7A120FDF7CBFDC9E770BD00BFD7
:0C2C600048000020BA100020BD10002029
:102C6C0010B5044602F0F4F801280DD000F042FA39
:102C7C00B4B194F858300F2B01D1A06A10BD80204C
:102C8C00FDF7B0FDA06AF9E7084B93F84530002B2F
:102C9C00ECD1A420FDF7A6FD00F02CFA002CE8D115
:102CAC00024B9C68002CE4D1014810BD4800002068
:042CBC00944E00082A
:102CC00038B5044602F0CAF80128204D32D000F091
:102CD00017FA4CB194F858300F2B22D1AB68A342AD
:102CE00025D094F8480038BD194B1B78012B06D02D
:102CF00013B995F8453013B9E220FDF779FD02F0DC
:102D0000ADF801281ED0134B1B782BB195F8453038
:102D100013B9A120FDF76CFDAC6894F858300F2B67
:102D200005D08020FDF764FDAB68A342D9D195F8AA
:102D3000300038BD95F84530002BC8D1A420FDF7F0
:102D400057FDC4E7A020FDF753FDDCE74800002055
:082D5000BD100020BA100020A4
:102D58002DE918481C4C00F0CFF994F84530002BA9
:102D68002DD0636B6BB1012384F838306371174B36
:102D78001C6824B1636898472468002CFAD1BDE820
:102D88001888D4E90A01236A626A01339A1A10F191
:102D9800010B41F1000C002A2362A4BF01236371D7
:102DA80094F83030C4E90ABC002BE0D0013BDBB218
:102DB80084F83030002BDAD101232371D7E7A22021
:102DC800FDF712FDCDE700BF48000020A410002049
:102DD80038B51C4C23691BB141695A69914223D902
:102DE800206123785BB101236371637813F0F00FDE
:102DF80016D1637813B9002080F3118838BD236C8D
:102E0800012222701BB1A0681B6A017C98470D48FB
:102E180001F0DBFF00232370637813F0F00FE8D094
:102E28009920FDF7E1FCE4E78342DAD09142E5D14D
:102E380002461268002AD8D05569A942D5D19342D2
:082E4800F7D1CDE7480000209E
:102E500038B51B4C637813F0F00F05461FD1802066
:102E600072B680F3118862B600BF00BF637894F831
:102E700044200133DBB26370CAB1206A6378114A1F
:102E8000284413F0F00F10600DD16378013BDBB2E2
:102E90006370637813B9002080F3118838BD9920DE
:102EA000FDF7A6FCDBE79920FDF7A2FCEDE7012387
:102EB00084F84430FFF72AFD034B1860DDE700BFBC
:0C2EC00048000020841000208C1000202E
:102ECC0070B5064601F0C4FF01284F4C63D001F0E9
:102EDC00BFFF04286BD8DFE800F0060603410600AC
:102EEC00A620FDF77FFC002E3DD096F858300F2B16
:102EFC0002D08020FDF776FC2378A268F56B0133B5
:102F0C00DBB2B24223705AD02378002B4BD02378FB
:102F1C00013BDBB223702378F3B96368E3B1802003
:102F2C0072B680F3118862B600BF00BF236C012219
:102F3C0022701BB1A0681B6A017C9847324801F0D3
:102F4C0042FF00232370637813F0F00F33D16378C2
:102F5C0013B9002080F31188284670BDA720FDF717
:102F6C0041FC002EC1D1294B1B78012B06D013B983
:102F7C0094F8453013B9E220FDF734FC01F068FFFA
:102F8C00012839D0224B1B781BB194F84530002B0B
:102F9C0036D0A668A9E794F84530002B97D1A42029
:102FAC00FDF720FC93E79720FDF71CFCAFE7A8206A
:102FBC00FDF718FC97E79920FDF714FCC7E7802074
:102FCC0072B680F3118862B600BF00BFFFF798FCA1
:102FDC00104B62781B6812F0F00FA5EB030505444B
:102FEC0006D16378002B8FD1002080F311888BE7FA
:102FFC009920FDF7F7FBF4E7A020FDF7F3FBC1E701
:10300C00A120FDF7EFFBC4E748000020BD10002015
:08301C00BA1000208C10002006
:10302400024A13780133DBB2137070474800002062
:1030340010B5184C23782BB32378013BDBB22370F3
:103044002378F3B96368E3B1802072B680F3118802
:1030540062B600BF00BF236C012222701BB1A068BE
:103064001B6A017C98470B4801F0B1FE00232370D2
:10307400637813F0F00F09D1637813B9002080F35B
:10308400118810BD9720FDF7B1FBD5E79920FDF716
:08309400ADFBF1E7480000204C
:10309C0010B5074C637813F0F00F05D1637813B9B2
:1030AC00002080F3118810BD9920FDF79BFBF5E7FC
:0430BC0048000020A8
:1030C00008B501F0CBFE042814D8DFE800F00E0D9F
:1030D00008030300A720BDE80840FDF789BBA62030
:1030E000BDE80840FDF784BB08BDA320BDE808404B
:1030F000FDF77EBBA820BDE80840FDF779BB00BF07
:1031000008B501F0ABFE04280FD8DFE800F00D0D84
:1031100003080D00A620BDE80840FDF769BBA72005
:10312000BDE80840FDF764BB08BDA820BDE8084025
:04313000FDF75EBB8E
:1031340038B52C4D2C4A2D482D4C2E4B2978106037
:1031440043F6FF7001226062C3E9062219B194F8C4
:103154004530002B42D0284B1B7823B1012B2ED1B4
:103164002B78012B27D101F077FE01282ED001F016
:1031740073FE04282ED8DFE800F00606031A0600C2
:10318400A620FDF733FBFFF72BFB01232370FFF78A
:1031940005FB0446FFF70EFB2038021B03D0204634
:1031A400CD2101F085FF154B01221A7038BDA720EF
:1031B400FDF71CFBE7E701F04FFE0128D3D0E32025
:1031C400FDF714FB01F048FE0128D0D1A020FDF743
:1031D4000DFBCCE7A820FDF709FBD4E7A120FDF700
:1031E40005FBB8E7BA100020881000202C4F000817
:1031F4004800002004100020BD100020B910002059
:1032040038B5274D2B6C04460BB1DB699847A3688E
:1032140043B11A68296AE1605B6802B15360002116
:103224001A60A160237C03F003032374F3B92B69B0
:103234001BB161695A69914223D92C612B78B3B9C6
:103244002B6C01222A701BB1A8681B6A017C984769
:10325400134801F0BCFD00232B706B7813F0F00FC2
:103264000BD16B7813B9002080F3118838BD01238A
:103274006B716B7813F0F00FF3D09920FDF7B6FA69
:10328400EFE79C42DAD09142F0D122461268002A3C
:10329400E3D050698142E0D19342F7D1CDE700BF3A
:0432A40048000020BE
:1032A80070B5054640690E4600285BD0414C23782E
:1032B8000133DBB22370002E59D033682B606E6265
:1032C800356043B15A695D6290420CBF95F8493048
:1032D800002385F848302B7C002B28D02378002B3E
:1032E8003CD02378013BDBB223702378F3B96368C1
:1032F800E3B1802072B680F3118862B600BF00BFC8
:10330800236C012222701BB1A0681B6A017C9847BC
:10331800284801F05AFD00232370637813F0F00F5A
:1033280037D1637813B9002080F3118870BD8020ED
:1033380072B680F3118862B600BF00BF2846FFF757
:103348005DFF637813F0F00F2DD16378002BC5D1A2
:10335800002080F311882378002BC2D19720FDF735
:1033680043FABEE7CB20FDF73FFA68699EE7E368BA
:10337800EBB15A69824203D80FE05A6982420ED9EA
:1033880019461B68002BF8D1002369622B600D6079
:10339800A1E79920FDF728FAC3E704F10C012B6097
:1033A80069620D608FE79920FDF71EFACDE704F1F9
:0833B8000C01E9E748000020C8
:1033C000F8B57D4D002401236C702B70802072B6FF
:1033D00080F3118862B600BF00BFEB6B23B1984742
:1033E000EC636C6385F83840002080F31188FFF7A8
:1033F000D7F90378CD2B02D07D20FDF7F9F9AC6821
:10340000CCB1236B1B78CD2B40F03681E36C93B1AC
:103410001B68626813B1104698470246246D54B188
:1034200023681B681046002B00F0AC819847646845
:103430000246002CF4D195F8313043B1AB682A79BB
:1034400095F8301083F84810002A40F0858195F8EF
:103450004430002B00F0AD80D80706D5574A296AC2
:103460001268521A002AC0F29D80FFF74FFAAB682B
:10347000534923B1DA6B0C68121B0244DA6308600B
:103480001BB11A7C002A00F0F3802B692BB92AE0CB
:1034900033682B61002080F31188802072B680F39E
:1034A000118862B600BF00BF2E691EB3347C0CB316
:1034B00061070AD5F2682B6AD31A002B40F3D0803B
:1034C0006B6AD31A002BB8BF6A6204F0FB04102C9D
:1034D000DED1B3689B685B681A7C002AD8D15A6930
:1034E00073699A42D4D0802072B680F3118862B694
:1034F00000BF00BF304F00266B79002B6CD02B6AC9
:10350000EA696E7103F180436B620AB138469047F5
:10351000002080F31188EC685CB953E06B6ACB1A29
:10352000002BB8BF6962002080F311882468002C4A
:1035300048D0802072B680F3118862B600BF00BF09
:103540002B6923B12B6962695B699A42D4D3237CCE
:103550005A07E8D5E1682A6A8A1A002ADEDC2A6C52
:103560001AB1D36920469847237CA2683AB1116802
:10357000286AE060526801B14A601160A66003F0F9
:10358000030323741BB92046FFF726FC237C80200D
:1035900072B680F3118862B600BF00BF002BABD0BB
:1035A000E168BBE703F0FE0385F84430002B7FF4AD
:1035B0005CAFAB6864E700BF4800002084100020C7
:1035C0008C100020802072B680F3118862B600BF94
:1035D00000BF6B79002B92D1804B1A78D7076ED43D
:1035E0002B6900226A60002B00F0A9802B691B7CEC
:1035F000C3B12B699B689B685C68626A236813602F
:10360000236803B15A622A692B6C5269626113B153
:10361000DB682046984701236B7029692046FFF735
:1036200043FE2C612C69AC6094F858300F2B2FD1DD
:10363000E36C002B32D05B68626813B11046984788
:103640000246246D54B123685B681046002B00F0DD
:103650009E80984764680246002CF4D1AC681DE057
:103660003046FFF7CFFD337C002B7FF42EAF3AE7D7
:103670009A6B01329A6308E77820FDF7B9F8AC68D5
:10368000002C3FF4D8AEE36C002B7FF4C1AED2E641
:103690008020FDF7ADF8AC68002CC9D12B6C94F8F4
:1036A000482085F8302085F831201BB120465B6921
:1036B0009847AC68636B4A4801336363F8BD802068
:1036C00072B680F3118862B600BF00BF454C226815
:1036D000296A521A002A83DC296A1A78D60721D56A
:1036E00006E02962002080F311881A78D20719D5E4
:1036F000802072B680F3118862B600BF00BF1A78CE
:103700009007EED51A7802F0FD021A70002080F3BF
:1037100011882B6A9942FCD0296223680133236007
:1037200023686B62802072B680F3118862B600BF96
:1037300000BF2B6900226A60002B7FF457AF2B6C0F
:103740000BB15B6A984700232B86AB602B7000207F
:1037500080F311882248F8BD802072B680F311886A
:1037600062B600BF00BF00222A71002080F31188DA
:103770001C681CB15E69626996420DD0002080F31E
:10378000118864E66468002C7FF44AAE53E66468EE
:10379000002C7FF458AF61E7224603E04869864277
:1037A00003D10A4611680029F8D1802072B680F34F
:1037B000118862B600BF00BF2969586A8B4208BFF2
:1037C0002C610460116860625A62196001B14B6239
:1037D00092F84910136082F84810CFE7BB10002020
:0837E0004800002094100020B5
:1037E80038B5104C2578A0682378017C0133DBB20A
:1037F800EDB2237019B1236C0BB11B6A98470948C5
:1038080001F0E3FA2570637813F0F00F05D16378BF
:1038180013B9002080F3118838BD9920FCF7E4FF24
:08382800F5E700BF4800002095
:1038300008B5064B1B6803B19847054B054A9B68C2
:103840001268DA6400221A6508BD00BF9C100020CF
:08385000480000209010002048
:083858009B20FCF7C9BF00BF73
:1038600070B50C4DFEF79CFF2B6804465E68FEF7B2
:103870009BFF2B68821B196F2244914204D2FB20CC
:10388000BDE87040FCF7B4BF3146D86EBDE870406B
:0838900001F0E7BBA0100020CD
:1038980008B501F0DFFA012803D0FFF72DFC07482F
:1038A80008BD074B93F84530002BF6D1A420FCF750
:1038B8009BFFFFF721FC014808BD00BF444F0008EB
:0438C8004800002094
:1038CC0008B501F0C5FA012803D0FFF713FC07482F
:1038DC0008BD074B93F84530002BF6D1A420FCF71C
:1038EC0081FFFFF707FC014808BD00BF544F0008DB
:0438FC004800002060
:1039000008B501F0ABFA012804D0FFF7F9FB084B2A
:10391000186808BD074B93F84530002BF5D1A4205B
:10392000FCF766FFFFF7ECFB014B186808BD00BF12
:083930004000002048000020C7
:1039380038B5044601F08EFA01280BD0FFF7DCFBFE
:10394800A4B194F858300F2B02D08020FCF74CFF1C
:10395800206B38BD154D95F84530002BEED1A420CD
:10396800FCF742FFFFF7C8FB002CEAD1104B0F4DC4
:103978001B78012B06D013B995F8453013B9E2200E
:10398800FCF732FF01F066FA012807D0094B1B78D3
:1039980013B195F845302BB1AC68D2E7A020FCF7FD
:1039A80023FFF3E7A120FCF71FFFF5E748000020FD
:0839B800BD100020BA10002030
:1039C00038B5044601F04AFA01280BD0FFF798FBFE
:1039D000A4B194F858300F2B02D08020FCF708FFD8
:1039E000E06A38BD154D95F84530002BEED1A42086
:1039F000FCF7FEFEFFF784FB002CEAD1104B0F4DC5
:103A00001B78012B06D013B995F8453013B9E22085
:103A1000FCF7EEFE01F022FA012807D0094B1B78D3
:103A200013B195F845302BB1AC68D2E7A020FCF774
:103A3000DFFEF3E7A120FCF7DBFEF5E748000020FE
:083A4000BD100020BA100020A7
:103A4800564AF8B51378092B00F2A580DFE803F091
:103A58001729313D42565B5F6A05514951480B8829
:103A68000468514DE45C287801339BB283420B8093
:103A780069D04E4A1378234413702046F8BD4C4B46
:103A88001B882BB9484B1B7803F0FF01002B7DD016
:103A9800484C4349012300202370088013708C2070
:103AA800F8BD434B1B88002B49D002231370ED202F
:103AB800F8BD3F4B1888EF283CD93C49000A40F034
:103AC800F000032308701370F8BD394904230878FF
:103AD8001370F8BD324D38492B88344CC85C2178B6
:103AE800334E01440133217031889BB299422B80B7
:103AF800C4D10521002311703380F8BD2B4906235A
:103B080008781370F8BD002313708D20F8BD26497E
:103B1800264C0B7808780133082101302370C0B295
:103B28001170F8BD21490B78433309200B701070D0
:103B38004320F8BD1D49042308701370F8BD0723FE
:103B48001370ED20F8BD05231370802072B680F342
:103B5800118862B600BF00BF0027184E2F70336867
:103B68001BB13068FFF74AFB3760154D6B7813F0CF
:103B7800F00F07D16B78002B7FF47BAF002080F328
:103B8800118876E79920FCF72FFEF3E7094B1970A7
:103B98004FF0FF30F8BD0020F8BD00BFC71000206F
:103BA800B6100020A8100020C5100020BF1000206B
:103BB800B4100020C6100020740D0020B0100020A2
:043BC8004800002091
:103BCC002DE9F047564E57483378C15C5A1CD2B297
:103BDC004329327031D0544C2588ADBB534D4FF036
:103BEC00010CA1F153072970A4F800C0212F00F299
:103BFC00DB82DFE817F0CA02D902D902D902D90256
:103C0C00D902D902D902D902D902D902D902D902D0
:103C1C00D902D902D9028F02D902D902D902D9020A
:103C2C00D902D902D902D9025902D902D902D90230
:103C3C00D902D902D902CC012C003D49805C0A681A
:103C4C000233337002B190470020BDE8F08703F1D6
:103C5C00020803F1030E03F1040C5FFA88F85FFA13
:103C6C008EFE5FFA8CFC10F8029010F8081010F819
:103C7C000E2010F80C70DFF8BC8047EA022741EAEE
:103C8C000921D8F80C2047EA0147053397423370D5
:103C9C0005D0002A00F0358312689742F9D197F8C5
:103CAC0010A0FEF72DFE2388C72B17D85A1C92B2F2
:103CBC00010EC82A2280E95410D0991C89B2060C36
:103CCC00C8292180AE5409D0DA1C92B2060AC82A3F
:103CDC0022806E5402D00433A8542380BAF1000F12
:103CEC0007D1D8F80830BB420CBF4FF0FF0A4FF099
:103CFC00000A3846FEF7B4FFB4F80090C9F1C701CA
:103D0C001D2900F22083002800F03A83002900F0DE
:103D1C006F830378002B00F07783034600260EE0B8
:103D2C00C31000203C100020B4100020740D0020A3
:103D3C00AC1000204800002013F8012F12B10136FE
:103D4C008E42F9D3B9F1C70F05D809F1010305F873
:103D5C0009601FFA83F932464E44014605EB09000F
:103D6C001FFA86F901F077F9A4F800907A69FF2A16
:103D7C0040F2F082B9F1C70F68D809F101039BB288
:103D8C000021C82B238005F809104FEA12605DD082
:103D9C0009F1020189B2C829E854218056D009F1F1
:103DAC0003039BB2100CC82B685423804FEA1220DB
:103DBC004CD009F1040189B2C729E854218045D8B7
:103DCC0009F105039BB26A542380C82B3ED0591CC1
:103DDC0089B205F803A0C7292180B86836D89A1C87
:103DEC0092B2060EC82A6E5422804FEA10462DD08D
:103DFC00D91C89B2C829AE54218027D01A1D92B281
:103E0C00060AC82A22806E5420D0A8545A1D92B299
:103E1C00C72A2280FE6819D8981D80B2310EC82896
:103E2C00A95420804FEA164210D0D91D89B2C82956
:103E3C002A5421800AD003F1080292B2300AC82A0F
:103E4C002280685402D00933AE5423803846FFF7E1
:103E5C006DFD2388C72B17D85A1C92B2010EC82AA5
:103E6C002280E95410D0991C89B2060CC8292180F3
:103E7C00AE5409D0DA1C92B2060AC82A22806E54BB
:103E8C0002D00433A85423803846FFF719F823884E
:103E9C00C72B34D85A1C92B2010EC82A2280E9547E
:103EAC002DD0991C89B2060CC8292180AE5426D07D
:103EBC00DA1C92B2060AC82A22806E541FD0A8546B
:103ECC001A1D92B2C72A22807E6B18D8581D80B258
:103EDC00310EC828A95420804FEA16420FD0991DE4
:103EEC0089B2C8292A54218009D0DA1D92B2300A2D
:103EFC00C82A2280685402D00833AE542380384636
:103F0C00FFF758FDB0F57F4F23880DD3C72B17D87B
:103F1C005A1C92B2FF21C82A2280E95410D00233D5
:103F2C00010C9BB2A9542380C72B09D85A1C92B2FE
:103F3C00010AC82A2280E95402D00233A8542380F3
:103F4C003846FEF7B7FE03462088C72800F2F881F2
:103F5C002B54431C9BB2C82B97F84910238000F0BC
:103F6C006982821C92B2C82AE954D8F82060228057
:103F7C0000F05E82C31C9BB2310AC82B2380A9546B
:103F8C0000F05A82043080B22080EE545DE641F29B
:103F9C008830FEF757FF2388DFF80084C72BD8F84A
:103FAC00201000F20381581C80B20A0EC828208011
:103FBC00EA5400F0FB809A1C92B20E0CC82A2280A4
:103FCC002E5400F0F380D81C80B20E0AC828208032
:103FDC00AE5400F0EB801A1D92B2C72A29542280ED
:103FEC00D8F8107000F2E480591D89B2380EC82937
:103FFC00A85421804FEA174200F0DA806A549A1DC7
:10400C0092B2D8F808002280C82A4FEA104600F075
:10401C00CF80D91D89B24FEA172CC829218005F809
:10402C0002C000F0C58003F1080292B2C72A6F5497
:10403C00228000F2BD8003F1090189B2070EC82964
:10404C002180AF5400F0B48003F10A0292B2C82A66
:10405C006E54228000F0AC8003F10B0189B2060A89
:10406C00C8292180AE5400F0A38003F10C0292B257
:10407C00C72A6854228000F29B8003F10D0189B29B
:10408C00C520C8292180A85400F0928003F10E02AB
:10409C0092B2A820C82A2280685400F0898001219D
:1040AC000F33A954238083E0BC4BD96802207423BE
:1040BC006B70208000293FF4C8AD4FF0000C461CFB
:1040CC00821CC31CC7284FEA1167B6B24FEA114EC7
:1040DC0092B24FEA11299BB200F1040812D8C82EF3
:1040EC002F5400F0A181C82A05F806E000F0988151
:1040FC00C82B05F8029000F0A181E9544FF0010C97
:10410C001FFA88F009680029D9D1BCF1000F3AD107
:10411C0020889AE503F1050E03F1030C5FFA8EFE7D
:10412C00991D5FFA8CFCC9B210F80E9010F80CE0D7
:10413C00415C10F802809F1C03F1040CFFB25FFA83
:10414C008CFC41EA0922C75D10F80C10073347EAD2
:10415C00082741EA0E2122F00300337041EA07419F
:10416C0086B2930802E083B204313BB10A68B2F123
:10417C00CD3F03F1FF30F6D09B009BB2F31A1A0A25
:10418C000320AB706A7020805FE5805C02330128ED
:10419C00337000F0AC80C0F0E880022804D1804A73
:1041AC00137843F00203137001204EE5D8F8103059
:1041BC00FFF76CFBB4F80080C8F1C7071D2F00F2A5
:1041CC009D80002800F0B180002F00F0F68003786D
:1041DC00002B00F003810346002602E013F8012FA8
:1041EC0012B10136BE42F9D3B8F1C70F05D808F1A8
:1041FC00010305F808601FFA83F80146324605EB07
:10420C000800464400F027FF2680FFF759FB27885B
:10421C00C7F1C7011D296ED800287BD0002900F0FA
:10422C00C5800278002A00F0D2800346002602E006
:10423C0013F8012F12B101368E42F9D3C72F02D8D1
:10424C007B1CEE559FB232463E440146B6B2E8198D
:10425C0000F001FF2680534B1B78C72EDBB202D82F
:10426C00AB5501362680FEF795FA2388C72B17D855
:10427C005A1C92B2010EC82A2280E95410D0991C03
:10428C0089B2060CC8292180AE5409D0DA1C92B22E
:10429C00060AC82A22806E5402D00433A854238004
:1042AC00FEF77CFA0346B3F57F4F20880FD3C7285F
:1042BC003FF6CBAC421C92B2FF21C82A2280295473
:1042CC0000F0B6800230190C80B2A9542080C728A7
:1042DC003FF6BBAC421C92B2190AC82A2280295460
:1042EC0000F0A680023080B22080AB54ADE42C4BA1
:1042FC0000221A70A9E468B11E2192E7A8B11E270A
:10430C0065E741214E22542304206970AA70EB709A
:10431C0020809AE4C72F05D87B1C9EB200232680F0
:10432C00EB5598E71F4B1B789DE7B8F1C70F3FF68D
:10433C006CAF002208F1010305F80820238064E724
:10434C00D8F8203081E4D8B11E21E2E47A69FF2A42
:10435C003FF67CADB9F1C70F3FF678AD09F101031B
:10436C009BB205F8092023802FE50D4B0B4A0E4913
:10437C0001201870136A03440B600B68536264E4E9
:10438C00B9F1C70FE2D8002209F1010305F80920A1
:10439C001FFA83F9A4F80090E8E400BF480000205D
:1043AC00BB100020BE10002094100020C72FB9D8DD
:1043BC007B1C9EB2E95526804DE7B8F1C70F3FF63E
:1043CC0024AF08F1010305F8087023801DE7C72FFF
:1043DC00A8D87B1C9EB2EA5526803CE7B8F1C70FE3
:1043EC003FF613AF08F1010205F8083022800CE704
:1043FC00B9F1C70FAAD809F1010305F809101FFA82
:10440C0083F9A4F80090B1E4B9F1C70F9ED809F173
:10441C00010205F809301FFA82F9A4F80090A5E40E
:10442C0010464FF0010C6DE630464FF0010C69E67A
:10443C0010460AE4D8F82020184606E418464FF037
:04444C00010C5FE61A
:1044500010B40649064C074A0748002323700B7026
:10446000037013605DF8044B704700BFC510002057
:0C447000C6100020B0100020C710002073
:10447C00564AF8B51378092B00F2A580DFE803F053
:10448C001729313D42565B5F6A05514951480B88EB
:10449C000468514DE45C287801339BB283420B8055
:1044AC0069D04E4A1378234413702046F8BD4C4B08
:1044BC001B882BB9484B1B7803F0FF01002B7DD0D8
:1044CC00484C4349012300202370088013708C2032
:1044DC00F8BD434B1B88002B49D002231370ED20F1
:1044EC00F8BD3F4B1888EF283CD93C49000A40F0F6
:1044FC00F000032308701370F8BD394904230878C1
:10450C001370F8BD324D38492B88344CC85C217877
:10451C00334E01440133217031889BB299422B8078
:10452C00C4D10521002311703380F8BD2B4906231B
:10453C0008781370F8BD002313708D20F8BD264940
:10454C00264C0B7808780133082101302370C0B257
:10455C001170F8BD21490B78433309200B70107092
:10456C004320F8BD1D49042308701370F8BD0723C0
:10457C001370ED20F8BD05231370802072B680F304
:10458C00118862B600BF00BF0027184E2F70336829
:10459C001BB13068FEF730FE3760154D6B7813F0A9
:1045AC00F00F07D16B78002B7FF47BAF002080F3EA
:1045BC00118876E79920FCF715F9F3E7094B197088
:1045CC004FF0FF30F8BD0020F8BD00BFC710002031
:1045DC00B6100020A8100020C5100020BF1000202D
:1045EC00B4100020C6100020740D0020B010002064
:0445FC004800002053
:1046000070B53E4C237806460BBB3D4D2B780122FE
:104610002270052B18D8DFE803F0252F34033E1E47
:10462000384A1378072B03D83749CE540133137017
:104630003648374903780A78013BDBB216440370E9
:104640000E700BB904232B700023237070BDB420AF
:10465000FCF7CEF8D9E78D2E27D000232B7000234E
:10466000237070BDED2EEFD126482A490023012288
:1046700003700B702A70E7E78C2EEED102232B70AB
:10468000E2E7731E072BE8D8204B214A1E70032354
:1046900016702B70D8E71E4A13781E44F6B21670B7
:1046A000002EDAD105232B70CEE7FFF78FFA002812
:1046B000D3D0194B1880802072B680F3118862B66F
:1046C00000BF00BF154B1B785BB1154E737813F01C
:1046D000F00F0ED17378002BBFD1002080F311882A
:1046E000BBE7FFF7B1F90028EFDBC0B200F015FD22
:1046F000EBE79920FCF77CF8ECE700BFC210002044
:10470000C4100020C01000203C100020C810002061
:10471000C1100020C3100020B4100020C6100020DB
:04472000480000202D
:10472400584AF8B51378092B00F2A980DFE803F0A2
:104734001A2C3441465A5F636E05534953480B881B
:104744000468534DE45C287801339BB283420B80A8
:104754006ED0504A137823441370204600F0DBFCDB
:104764000020F8BD4C4B1B882BB9494B1B7803F038
:10477400FF01002B7FD0494C4349012300202370C3
:10478400137008808C24E8E7434B1B88002B45D02A
:1047940002231370ED24E0E73F4B1C88EF2C41D932
:1047A400240A3C4944F0F00403230C70E4B213706F
:1047B400D3E7394904230C781370CEE7324D3849D6
:1047C4002B883448CC5C0178334E2144013301708A
:1047D40031889BB299422B80BFD1052100231170EF
:1047E4003380BAE72B4906230C781370B5E700230E
:1047F40013708D24B1E7264926480B780C780133D1
:1048040001340821E4B203701170A6E721490B7842
:10481400092043330B70107043249EE70723137061
:10482400ED249AE71B4904230C70E4B2137094E757
:1048340005231370802072B680F3118862B600BF1E
:1048440000BF0027174E2F7033681BB13068FEF786
:10485400D7FC3760144D6B7813F0F00F07D16B78E9
:10486400002B7FF476AF002080F3118871E7992044
:10487400FBF7BCFFF3E7094B19700120F8BD0024D6
:104884006BE700BFC7100020B6100020A81000205E
:10489400C5100020BF100020B4100020C610002056
:0C48A400740D0020B0100020480000201F
:1048B00008B5164BD3F88830144A43F47003C2F895
:1048C0008830134B1B68124A43F001031360104BEE
:1048D00000229A600E4B1B680D4A23F0847323F468
:1048E000803313600A4B0B4A5A60094B1B68084A15
:1048F00023F480231360064B0022DA6000F088F86E
:10490000024B4FF000629A6000BF08BD00ED00E06E
:084910000038024010300024C1
:1049180086B0002304930023059302230393002306
:10492800029302230193334B9B6803F00C03049317
:10493800049B082B11D0049B082B44D8049B002B04
:1049480003D0049B042B04D03DE02B4B2B4A1A6068
:104958003DE0294B2A4A1A6039E0264B5B689B0DDB
:1049680003F001030293234B5B6803F03F030193B9
:10497800029B002B0CD0224A019BB2FBF3F31D4A89
:1049880052689209C2F3080202FB03F305930BE095
:104998001A4A019BB2FBF3F3164A52689209C2F312
:1049A800080202FB03F30593124B5B681B0C03F030
:1049B800030301335B000393059A039BB2FBF3F3F4
:1049C8000D4A136003E00C4B0C4A1A6000BF094BF8
:1049D8009B681B0903F00F030A4AD35CDBB20493FC
:1049E800054B1A68049B22FA03F3034A136000BFBD
:1049F80006B0704700380240440000200024F4004C
:084A0800001BB7003000002084
:104A100082B00023019300230093344B1B68334A78
:104A200043F480331360314B1B6803F4003300936D
:104A3000019B01330193009B002B03D1019BB3F534
:104A4000A06FF0D1294B1B6803F40033002B02D078
:104A50000123009301E000230093009B012B42D12E
:104A6000224B1B6C214A43F080531364204B1B687C
:104A70001F4A43F4804313601C4B1C4A9B6893609D
:104A80001A4B9B68194A43F400439360174B9B6889
:104A9000164A43F4A0539360144B164A5A60134BC2
:104AA0001B68124A43F08073136000BF0F4B1B68F2
:104AB00003F00073002BF9D00F4B40F205621A602F
:104AC0000A4B9B68094A23F003039360074B9B68DA
:104AD000064A43F00203936000BF044B9B6803F057
:104AE0000C03082BF9D100BF02B070470038024018
:0C4AF00000700040062A4007003C024015
:044AFC002000000096
:104B0000651E0008E51E00081D1F0008E74E00088E
:104B10006921000871220008F52200082D230008F1
:104B2000B12300083121000815140008C7510008FE
:104B3000DF510008FB5100081B520008754F0008A8
:104B4000675200088B4F00080D2000087B520008B8
:0C4B5000ED2100083F52000893520008BD
:084B5C00A52900084527000807
:104B640011488546114C20680434004201D0804726
:104B7400F9E70F480F49091A082903DB00220260EC
:104B8400043001600C480D49884205D002680430A5
:104B940003B4904703BCF7E700208646EC460020A8
:104BA4000021074A9047FEE700000220F052000867
:104BB400D0100020D0140020E54E0008E54E000877
:044BC400D50100080F
:104BC800094820F0070085460848804708480949F1
:104BD80001600948016841F470010160BFF34F8F1B
:104BE800BFF36F8F0548804700000220B1480008D6
:104BF80008ED00E00000000888ED00E0654B0008C3
:104C0800FEE7FEE7FEE7FEE7FEE7FEE7FEE7FEE774
:104C1800FEE7FEE7FEE7FEE7FEE7FEE7FEE7FEE764
:104C2800FEE7FEE7FEE7FEE7FEE7FEE7FEE7FEE754
:104C3800FEE7FEE7FEE7FEE7FEE7FEE7FEE7FEE744
:104C4800FEE7FEE7FEE7FEE7FEE7FEE7FEE7FEE734
:104C5800FEE7FEE7FEE7FEE7FEE7FEE7FEE7FEE724
:104C6800FEE7FEE7FEE7FEE7FEE7FEE7FEE7FEE714
:104C7800FEE7FEE7FEE7FEE7FEE7FEE7FEE7FEE704
:104C8800FEE7FEE7FEE7FEE7FEE7FEE7FEE7FEE7F4
:104C9800FEE7FEE7FEE7FEE7FEE7FEE7FEE7FEE7E4
:104CA800FEE7FEE7FEE7FEE7FEE7FEE7FEE700BFFA
:104CB8001EF0040F0CBFEFF30880EFF309800149E1
:084CC80008470000D50A0008AE
:104CD0005448816861B9714611F0100F1CBF08B0CB
:104CE00016E051490A6822F001020A601AB00FE08A
:104CF000EFF309821EF0100F03D1A2F1400282EC03
:104D0000108AA2F12802036882E8F84F83685A608B
:104D1000464988478168B9B14A6892E8F84F03600C
:104D200002F128021EF0100F01D1B2EC108A82F3BA
:104D3000098890693E493F4A884201DB904202DB84
:104D400013F47F4F68D070473B483C490968401ACC
:104D500080F308884FF08071C161394981617FF02B
:104D6000060E704701BC37488047204602BC884782
:104D70005DF804EB3449084734480068002809D03E
:104D8000EFF314816A467346A0E8FE0F80EC108AA8
:104D90002F4880472F4829490968401A20F007000A
:104DA00080F308884FF000011E48417081F311889C
:104DB00062B600F028F8FEE724480068B0E8FE0F6D
:104DC00081F31488BFF36F8F95469E4690EC108A4E
:104DD000704703680CB44FF0000141704FF00001C0
:104DE00081F311881C494FF080520A60BFF34F8F46
:104DF000BFF36F8F4FF0800172B681F3118862B6F6
:104E00000CBC0360704714494FF080520A60BFF336
:104E10004F8FBFF36F8F70474FF0000181F3118800
:104E2000704700004800002034EF00E0C133000864
:104E3000D34D0008044E0008E0FF0120FC4A0008A2
:104E4000934E00083138000859380008A01000209F
:0C4E5000613800080000022004ED00E0C2
:104E5C00EFF3058000281CBF01490847704700008C
:044E6C00BD27000856
:104E70004850205461736B004C50205461736B0098
:084E8000537973566965770050
:0A4E88000000000000000000000020
:024E9200FEE739
:0A4E94004F535F49646C6528290044
:0E4E9E0082B00190019B0433184602B07047A9
:104EAC004E3D656D624F5320737461727420707245
:104EBC006F6A6563742C4F3D656D624F532C443D96
:104ECC0053544D333246343037564500492331352F
:094EDC003D5379735469636B00C6
:104EE60000B589B00190FEF79AF803AB14220021B1
:104EF600184600F0DCF8019B0393019B9B6A049320
:104F0600019B5B690593019B1B6B0693019BDB6A07
:104F1600079303AB1846FCF75AFEFEF788F800BF66
:064F260009B05DF804FB78
:104F2C0053454747455220656D624F5320562835EF
:074F3C00303630307529000A
:0F4F440047434320436F72746578204D34460015
:074F54007637764C44500053
:104F5C005465726D696E616C00000000525454000F
:074F6C005345474745520081
:104F740000B583B001900198FDF7C0FA03461846C6
:064F840003B05DF804FB20
:0A4F8A0008B5FDF722F800BF08BDCE
:104F940053EA020C61D02DE9F04BB3FA83F51E00FD
:104FA40007BFB2FA82F502FA05F403FA05F41646CD
:104FB400C5F120051EBF22FA05F73C43203556EA09
:104FC400044C4FEA144418BF0134A3464FF00009BF
:104FD400C846904271EB030C39D3094207BFB0FABB
:104FE40080F700FA07F6B1FA81F701FA07F6C7F17C
:104FF40020071EBF20FA07FC46EA0C062037B6FB42
:10500400FBFC7F1B103F07F01F04C4F120060CFAC1
:1050140004F42CFA06F644BF34460026202FA4BF1D
:105024002646002454EA060C08BF012418EB0408A1
:1050340049EB0609A4FB027CC01B06FB02CC04FB63
:1050440003CC71EB0C01904271EB030CC5D20B46FF
:0E505400024649464046BDE8F08BB2FBF3F23F
:10506200844640EA010313F0030F18D18446202A34
:105072000BD32DE9F007B1E8F807A0E8F807A2F191
:105082002002202AF7D2BDE8F007042A07D351F8FC
:10509200043B40F8043BA2F10402042AF7D2002A9E
:1050A20005D011F8013B00F8013B013AF9D1604605
:0250B200704745
:1050B4008446002A2DD010F0030F04D000F8011B01
:1050C400013A26D0F7E7C9B241EA012141EA014198
:1050D400202A12D3A2F120022DE9F0030B460C463C
:1050E4000D460E460F4688468946A0E8FA03203A44
:1050F400FBD2BDE8F00320320BD0042A05D340F8DC
:10510400041B043A05D0042AF9D200F8011B013A21
:06511400FBD1604670476C
:10511A0000B583B003468DF807309DF8073018466E
:0C512A00FBF7EBFA00BF03B05DF804FBDC
:1051360086B00390029101920023049302E0049B3F
:1051460001330493029A049B13441B78002BF6D177
:10515600049A019B9A4201D9019B0493049BFE2B5E
:1051660006D8039B5A1C0392049AD2B21A7011E015
:10517600039B5A1C0392FF221A70039B5A1C03922C
:10518600049AD2B21A70049B190A039B5A1C039202
:10519600CAB21A70002305930AE0029A531C0293BE
:1051A600039B591C039112781A70059B01330593D2
:1051B600059A049B9A42F0D3039B184606B07047A3
:1051C60000B583B00190009100990198FCF73BF976
:0851D60000BF03B05DF804FB0B
:1051DE0000B585B0039002910192019A029903984D
:0C51EE00FCF769F900BF05B05DF804FB98
:1051FA0000B585B00390029101920093009B019A39
:10520A0002990398FCF7B1F900BF05B05DF804FBF9
:10521A0000B587B00590049103920293089B00930E
:10522A00029B039A04990598FCF715FA00BF07B088
:04523A005DF804FB1C
:10523E0000B587B00590049103920293099B0193E8
:10524E00089B0093029B039A04990598FCF793FA26
:08525E0000BF07B05DF804FB7E
:1052660000B583B001900198FCF771FE00BF03B052
:045276005DF804FBE0
:10527A0000B583B00190009100990198FCF7FBFEFC
:08528A0000BF03B05DF804FB56
:1052920000B583B00190009100990198FDF7E7F8FD
:0852A20000BF03B05DF804FB3E
:1052AA00024610F0030F16D111F0030F13D12DE9A6
:1052BA00F0004FF001374FF0803351F8044BA4EB64
:1052CA00070525EA04051D4002D142F8044BF4E71C
:1052DA00A1F10401F0BC11F8013B02F8013B002BDB
:0452EA00F9D170473F
:1052F0005953000848000020811000006F53000837
:1053000000000020105300084800000000000000CA
:105310000800000000000240140002401800024093
:105320000900000000000240140002401800024082
:105330000A00000000000240140002401800024071
:105340000000000000000000010203040607080935
:08535000A8C50000007A030A61
:10535800206861680834094204D0002202700130D4
:065368000139FBD1704782
:10536E0020686168A2680C34124205D00B78037075
:0A537E0001300131013AF9D1704706
:0400000508004BC9DB
:00000001FF
